:020000040000FA
:0600000081EF24F0120064
:020006001200E6
:0600080082EF00F012007F
:02000E000100EF
:0C00100054490000000E00001800000021
:04001C00839E640E4D
:10002000E66EE66AE66AE66A1EEC15F0E552E5520F
:10003000E552E5528090640EE66EE66AE66AE66A8C
:100040001EEC15F0E552E552E552E5528092640E41
:10005000E66EE66AE66AE66A1EEC15F0E552E552DF
:10006000E552E55212008150200B03E08150100B45
:1000700048E1D59ED3DF81BA1AD0838E320EE66E68
:10008000E66AE66AE66A1EEC15F0E552E552E552CC
:10009000E5528080F40EE66E010EE66EE66AE66AD0
:1000A0001EEC15F0E552E552E552E552E4D781B871
:1000B0001AD0838E320EE66EE66AE66AE66A1EECB7
:1000C00015F0E552E552E552E5528082F40EE66EF7
:1000D000010EE66EE66AE66A1EEC15F0E552E552A0
:1000E000E552E552E4D79ADFF40EE66E010EE66EB5
:1000F000E66AE66A1EEC15F0E552E552E552E55275
:10010000D58E1200DACFE4FFE2CFDAFFE9CFE4FFC9
:10011000EACFE4FFF6CFE4FFF7CFE4FFF5CFE4FF4B
:10012000F3CFE4FFF4CFE4FFFACFE4FF00EE00F0FA
:10013000140EE80403E3EECFE4FFFBD700EE14F067
:10014000070EE80403E3EECFE4FFFBD7E652D59EAB
:10015000F2940E01100552E180920A0EE66EE66AF4
:10016000E66AE66A1EEC15F0E552E552E552E55204
:100170000E0122510E010C5D0E0123510E010D598D
:1001800019E280800A0EE66EE66AE66AE66A1EEC0E
:1001900015F0E552E552E552E552838E0A0EE66E01
:1001A000E66AE66AE66A1EEC15F0E552E552E552AB
:1001B000E55218D080900A0EE66EE66AE66AE66AB4
:1001C0001EEC15F0E552E552E552E552839E0A0E0B
:1001D000E66EE66AE66AE66A1EEC15F0E552E5525E
:1001E000E552E5520E010C2B000E0D23630E0C5D43
:1001F000000E0D5902E30C6B0D6BFED0020E105D6C
:1002000052E180900A0EE66EE66AE66AE66A1EEC45
:1002100015F0E552E552E552E5520E0124510E016A
:100220000C5D0E0125510E010D5919E280820A0E56
:10023000E66EE66AE66AE66A1EEC15F0E552E552FD
:10024000E552E552838E0A0EE66EE66AE66AE66AD3
:100250001EEC15F0E552E552E552E55218D08092B9
:100260000A0EE66EE66AE66AE66A1EEC15F0E552EC
:10027000E552E552E552839E0A0EE66EE66AE66AAC
:10028000E66A1EEC15F0E552E552E552E5520E0124
:100290000C2B000E0D23630E0C5D000E0D5902E3B6
:1002A0000C6B0D6BA9D0030E105D52E180920A0E0B
:1002B000E66EE66AE66AE66A1EEC15F0E552E5527D
:1002C000E552E5520E011E510E010E5D0E011F5149
:1002D0000E010F5919E280800A0EE66EE66AE66AA0
:1002E000E66A1EEC15F0E552E552E552E552838EC2
:1002F0000A0EE66EE66AE66AE66A1EEC15F0E5525C
:10030000E552E552E55218D080900A0EE66EE66A94
:10031000E66AE66A1EEC15F0E552E552E552E55252
:10032000839E0A0EE66EE66AE66AE66A1EEC15F041
:10033000E552E552E552E5520E010E2B000E0F2359
:10034000630E0E5D000E0F5902E30E6B0F6B54D05F
:10035000040E105D51E180900A0EE66EE66AE66AD0
:10036000E66A1EEC15F0E552E552E552E5520E0143
:1003700020510E010E5D0E0121510E010F5919E29F
:1003800080820A0EE66EE66AE66AE66A1EEC15F000
:10039000E552E552E552E552838E0A0EE66EE66AB4
:1003A000E66AE66A1EEC15F0E552E552E552E552C2
:1003B00018D080920A0EE66EE66AE66AE66A1EECDD
:1003C00015F0E552E552E552E552839E0A0EE66EBF
:1003D000E66AE66AE66A1EEC15F0E552E552E55279
:1003E000E5520E010E2B000E0F23630E0E5D000E64
:1003F0000F5902E30E6B0F6BF70ED76ED66ED58ECC
:10040000E55200EE1AF0070EE80403E3E5CFEDFF36
:10041000FBD700EE13F0140EE80403E3E5CFEDFF85
:10042000FBD7E5CFFAFFE5CFF4FFE5CFF3FFE5CF4C
:10043000F5FFE5CFF7FFE5CFF6FFE5CFEAFFE5CF24
:10044000E9FFE5CFDAFF1100D9CFE6FFE1CFD9FF11
:10045000230EE126070EDB6A080EDB6A090EDB6A53
:100460000A0EDB6A0B0EDB6A0C0EDB6A0D0EDB6A12
:100470000E0EDB6A020EF36E120EF3CFDBFF130ECD
:10048000DB6A200EDB6A210EDB6A220EDB6AD0EC0F
:1004900021F0829E83A2FED7100EE66E270EE66E36
:1004A000E66AE66A1EEC15F0E552E552E552E552C1
:1004B0008296828C829AE66A0C0EE66EE4EC16F066
:1004C000E552E55283B2FED7010EE66E0C0EE66EE3
:1004D000E4EC16F0E552E552E66A0F0EE66EE4EC47
:1004E00016F0E552E552070EE66E0B0EE66EE4ECF2
:1004F00016F0E552E552010EE66E0A0EE66EE4ECE9
:1005000016F0E552E552E66A090EE66EE4EC16F0E6
:10051000E552E5525DEC1CF0010EE66EA7EC1CF016
:10052000E552E66ED9501A0FE96EDACFEAFFE552CE
:10053000E750EE6EED6A020EE66EA7EC1CF0E55297
:10054000E66ED9501C0FE96EDACFEAFFE552E750AC
:10055000EE6EED6A040EE66EA7EC1CF0E552E66E58
:10056000D9501E0FE96EDACFEAFFE552E750EE6E82
:10057000ED6A080EE66EA7EC1CF0E552E66ED95067
:10058000140FE96EDACFEAFFE552E750EE6EED6A3E
:10059000090EE66EA7EC1CF0E552E66ED950160F78
:1005A000E96EDACFEAFFE552E750EE6EED6A0A0E29
:1005B000E66EA7EC1CF0E552E66ED950180FE96E16
:1005C000DACFEAFFE552E750EE6EED6A000EE66E16
:1005D000E66ACBEC23F0E552E552E66ED9500B0FFC
:1005E000E96EDACFEAFFE552E750EE6EED6AD950D8
:1005F0000B0FE96EDACFEAFFFF0EEE1801E1ED50C6
:1006000008E0D9500B0FE96EDACFEAFFEE50ED109B
:100610000AE1020EE66E000EE66EE66A6BEC23F06F
:10062000E552E552E552000EE66EE66ACBEC23F0A9
:10063000E552E552E76E120EE7CFDBFF010EE66EE4
:10064000E66ACBEC23F0E552E552E66ED9500B0F8B
:10065000E96EDACFEAFFE552E750EE6EED6AD95067
:100660000B0FE96EDACFEAFFFF0EEE1801E1ED5055
:1006700008E0D9500B0FE96EDACFEAFFEE50ED102B
:100680000AE1190EE66E010EE66EE66A6BEC23F0E7
:10069000E552E552E552020EE66EE66ACBEC23F037
:1006A000E552E552E66ED9500B0FE96EDACFEAFF5C
:1006B000E552E750EE6EED6AD9500B0FE96EDACFD6
:1006C000EAFFFF0EEE1801E1ED5008E0D9500B0FE4
:1006D000E96EDACFEAFFEE50ED1009E1E66A020EAC
:1006E000E66EE66A6BEC23F0E552E552E552010E48
:1006F000E66EE66ACBEC23F0E552E552E66ED950A1
:100700000B0FE96EDACFEAFFE552E750EE6EED6AC5
:10071000020EE66EE66ACBEC23F0E552E552E66E99
:10072000D9500D0FE96EDACFEAFFE552E750EE6ED1
:10073000ED6A0D0EDBCF14F00E0EDBCF15F0640E5C
:10074000086E096A0B0EDBCF0DF00C0EDBCF0EF03E
:10075000A0EC22F0065014240E011E6F0750152045
:100760001F6F030EE66EE66ACBEC23F0E552E5520E
:10077000E66ED9500B0FE96EDACFEAFFE552E7508B
:10078000EE6EED6AD9500B0FE96EDACFEAFFFF0E7D
:10079000EE1801E1ED5008E0D9500B0FE96EDACF09
:1007A000EAFFEE50ED100AE1190EE66E030EE66E5A
:1007B000E66A6BEC23F0E552E552E552040EE66E74
:1007C000E66ACBEC23F0E552E552E66ED9500B0F0A
:1007D000E96EDACFEAFFE552E750EE6EED6AD950E6
:1007E0000B0FE96EDACFEAFFFF0EEE1801E1ED50D4
:1007F00008E0D9500B0FE96EDACFEAFFEE50ED10AA
:1008000009E1E66A040EE66EE66A6BEC23F0E55257
:10081000E552E552030EE66EE66ACBEC23F0E552B4
:10082000E552E66ED9500B0FE96EDACFEAFFE552DA
:10083000E750EE6EED6A040EE66EE66ACBEC23F04E
:10084000E552E552E66ED9500D0FE96EDACFEAFFB8
:10085000E552E750EE6EED6A0D0EDBCF14F00E0E92
:10086000DBCF15F0640E086E096A0B0EDBCF0DF0BE
:100870000C0EDBCF0EF0A0EC22F0065014240E017B
:10088000206F07501520216F050EE66EE66ACBEC4F
:1008900023F0E552E552E66ED9500B0FE96EDACF40
:1008A000EAFFE552E750EE6EED6AD9500B0FE96EA4
:1008B000DACFEAFFFF0EEE1801E1ED5008E0D95063
:1008C0000B0FE96EDACFEAFFEE50ED100AE1030EEE
:1008D000E66E050EE66EE66A6BEC23F0E552E55235
:1008E000E552060EE66EE66ACBEC23F0E552E552E1
:1008F000E66ED9500B0FE96EDACFEAFFE552E7500A
:10090000EE6EED6AD9500B0FE96EDACFEAFFFF0EFB
:10091000EE1801E1ED5008E0D9500B0FE96EDACF87
:10092000EAFFEE50ED1009E1E66A060EE66EE66AB1
:100930006BEC23F0E552E552E552050EE66EE66AF1
:10094000CBEC23F0E552E552E66ED9500B0FE96E81
:10095000DACFEAFFE552E750EE6EED6A060EE66E7C
:10096000E66ACBEC23F0E552E552E66ED9500D0F66
:10097000E96EDACFEAFFE552E750EE6EED6A0D0E52
:10098000DBCF14F00E0EDBCF15F0640E086E096A93
:100990000B0EDBCF0DF00C0EDBCF0EF0A0EC22F037
:1009A000065014240E01226F07501520236F070EE6
:1009B000E66EE66ACBEC23F0E552E552E66ED950DE
:1009C0000B0FE96EDACFEAFFE552E750EE6EED6A03
:1009D000D9500B0FE96EDACFEAFFFF0EEE1801E1F6
:1009E000ED5008E0D9500B0FE96EDACFEAFFEE5078
:1009F000ED100AE1030EE66E070EE66EE66A6BEC9A
:100A000023F0E552E552E552080EE66EE66ACBECBD
:100A100023F0E552E552E66ED9500B0FE96EDACFBE
:100A2000EAFFE552E750EE6EED6AD9500B0FE96E22
:100A3000DACFEAFFFF0EEE1801E1ED5008E0D950E1
:100A40000B0FE96EDACFEAFFEE50ED1009E1E66A2E
:100A5000080EE66EE66A6BEC23F0E552E552E552CD
:100A6000070EE66EE66ACBEC23F0E552E552E66E41
:100A7000D9500B0FE96EDACFEAFFE552E750EE6E80
:100A8000ED6A080EE66EE66ACBEC23F0E552E5521D
:100A9000E66ED9500D0FE96EDACFEAFFE552E75066
:100AA000EE6EED6A0D0EDBCF14F00E0EDBCF15F0FF
:100AB000640E086E096A0B0EDBCF0DF00C0EDBCF57
:100AC0000EF0A0EC22F0065014240E01246F075003
:100AD0001520256F090EE66EE66ACBEC23F0E55291
:100AE000E552E66ED9500B0FE96EDACFEAFFE55218
:100AF000E750EE6EED6AD9500B0FE96EDACFEAFFE0
:100B0000FF0EEE1801E1ED5008E0D9500B0FE96E31
:100B1000DACFEAFFEE50ED100AE1070EE66E090E9D
:100B2000E66EE66A6BEC23F0E552E552E552090EFB
:100B3000E66EE66ACBEC23F0E552E552E76E0F0E67
:100B4000E7CFDBFF0A0EE66EE66ACBEC23F0E55258
:100B5000E552E66ED9500B0FE96EDACFEAFFE552A7
:100B6000E750EE6EED6AD9500B0FE96EDACFEAFF6F
:100B7000FF0EEE1801E1ED5008E0D9500B0FE96EC1
:100B8000DACFEAFFEE50ED100AE1040EE66E0A0E2F
:100B9000E66EE66A6BEC23F0E552E552E5520A0E8A
:100BA000E66EE66ACBEC23F0E552E552E76E110EF5
:100BB000E7CFDBFF0B0EE66EE66ACBEC23F0E552E7
:100BC000E552E66ED9500B0FE96EDACFEAFFE55237
:100BD000E750EE6EED6AD9500B0FE96EDACFEAFFFF
:100BE000FF0EEE1801E1ED5008E0D9500B0FE96E51
:100BF000DACFEAFFEE50ED1009E1E66A0B0EE66E81
:100C0000E66A6BEC23F0E552E552E5520B0EE66E18
:100C1000E66ACBEC23F0E552E552E76E100EE7CF23
:100C2000DBFF110EDBCFE6FF0A0EE66EE4EC16F0FA
:100C3000E552E552020E146E480E156E166A14C087
:100C4000E6FF15C0E6FF16C0E6FFD9CFE6FFDACF14
:100C5000E6FF7AEC21F0176E050EE15E1750D9CF52
:100C6000E6FFDACFE6FF35EC16F0E552E552400E2E
:100C7000E66E0D0EE66E030EE66EE66A1EEC15F0ED
:100C8000E552E552E552E5528150010B34E18150C5
:100C9000100B31E1FC0E146E470E156E166A14C06F
:100CA000E6FF15C0E6FF16C0E6FFD9CFE6FFDACFB4
:100CB000E6FF7AEC21F0176E050EE15E1750D9CFF2
:100CC000E6FFDACFE6FF35EC16F0E552E55281504B
:100CD000010B10E18150100B0DE1200EE66E4E0E5F
:100CE000E66EE66AE66A1EEC15F0E552E552E5525C
:100CF000E552EDD768D18150010B01E064D18150FC
:100D0000200B01E060D1D950100FE66E000EDA2002
:100D1000E66ED950110FE66E000EDA20E66ED9505D
:100D20000F0FE66E000EDA20E66E240EE66E0E0E53
:100D3000E66E220EE66E0E0EE66E200EE66E0E0ECD
:100D4000E66E1E0EE66E0E0EE66ED950120FE66EC1
:100D5000000EDA20E66E17EC10F0146E100EE15E55
:100D60001450120EDBCFE6FF000EE66EE66A6BEC67
:100D700023F0E552E552E552640E146E156A1ECE5C
:100D800008F01FCE09F014C00DF015C00EF049ECAC
:100D900024F00B0E08C0DBFF0C0E09C0DBFF640E55
:100DA000086E096A0B0EDBCF0DF00C0EDBCF0EF0D8
:100DB000A0EC22F00E0106501E5D146E07501F5964
:100DC000156E0D0E14C0DBFF0E0E15C0DBFF0B0EF3
:100DD000DBCFE6FF010EE66EE66A6BEC23F0E55230
:100DE000E552E5520D0EDBCFE6FF020EE66EE66A37
:100DF0006BEC23F0E552E552E552640E146E156A71
:100E000020CE08F021CE09F014C00DF015C00EF070
:100E100049EC24F00B0E08C0DBFF0C0E09C0DBFF11
:100E2000640E086E096A0B0EDBCF0DF00C0EDBCFE3
:100E30000EF0A0EC22F00E010650205D146E07505B
:100E40002159156E0D0E14C0DBFF0E0E15C0DBFF11
:100E50000B0EDBCFE6FF030EE66EE66A6BEC23F0CB
:100E6000E552E552E5520D0EDBCFE6FF040EE66ECD
:100E7000E66A6BEC23F0E552E552E552640E146E1F
:100E8000156A22CE08F023CE09F014C00DF015C06B
:100E90000EF049EC24F00B0E08C0DBFF0C0E09C06D
:100EA000DBFF640E086E096A0B0EDBCF0DF00C0E33
:100EB000DBCF0EF0A0EC22F00E010650225D146E86
:100EC00007502359156E0D0E14C0DBFF0E0E15C012
:100ED000DBFF0B0EDBCFE6FF050EE66EE66A6BEC82
:100EE00023F0E552E552E5520D0EDBCFE6FF060E8C
:100EF000E66EE66A6BEC23F0E552E552E552640ECD
:100F0000146E156A24CE08F025CE09F014C00DF039
:100F100015C00EF049EC24F00B0E08C0DBFF0C0EE0
:100F200009C0DBFF640E086E096A0B0EDBCF0DF003
:100F30000C0EDBCF0EF0A0EC22F00E010650245D6B
:100F4000146E07502559156E0D0E14C0DBFF0E0EE2
:100F500015C0DBFF0B0EDBCFE6FF070EE66EE66A81
:100F60006BEC23F0E552E552E5520D0EDBCFE6FFC8
:100F7000080EE66EE66A6BEC23F0E552E552E552A8
:100F80000F0EDBCFE6FF090EE66EE66A6BEC23F090
:100F9000E552E552E552110EDBCFE6FF0A0EE66E92
:100FA000E66A6BEC23F0E552E552E552100EDBCF1A
:100FB000E6FF0B0EE66EE66A6BEC23F0E552E552B7
:100FC000E55249EF02F00A0E0D6E0E6A22CE08F0CD
:100FD00023CE09F049EC24F008C022FE09C023FE0C
:100FE0000A0E0D6E0E6A24CE08F025CE09F049ECEB
:100FF00024F008C024FE09C025FE320E0D6E0E6AD4
:101000001ECE08F01FCE09F049EC24F008C01EFEE9
:1010100009C01FFE320E0D6E0E6A20CE08F021CEE2
:1010200009F049EC24F008C020FE09C021FE070E9B
:10103000E66E0B0EE66EE4EC16F0E552E5527E0E1F
:10104000E66E010EE66EE4EC16F0E552E552FE0E99
:10105000E66E020EE66EE4EC16F0E552E552E66A44
:10106000030EE66EE4EC16F0E552E552E66A040E75
:10107000E66EE4EC16F0E552E552E66A050EE66E21
:10108000E4EC16F0E552E552E66A060EE66EE4EC94
:1010900016F0E552E552E66A070EE66EE4EC16F04D
:1010A000E552E552E66A080EE66EE4EC16F0E5520B
:1010B000E552100EDB0429E1140EDBCFE6FF150E1E
:1010C000DBCFE6FF160EDBCFE6FF170EDBCFE6FF2A
:1010D000F20E146E470E156E166A14C0E6FF15C0A8
:1010E000E6FF16C0E6FFD9CFE6FFDACFE6FF7AECDF
:1010F00021F0176E090EE15E1750D9CFE6FFDACF67
:10110000E6FF35EC16F0E552E552070EE66E0B0EE3
:10111000E66EE4EC16F0E552E552839E640EE66E50
:10112000E66AE66AE66A1EEC15F0E552E552E5521B
:10113000E5528090640EE66EE66AE66AE66A1EECA8
:1011400015F0E552E552E552E5528092640EE66EE6
:10115000E66AE66AE66A1EEC15F0E552E552E552EB
:10116000E5528150010B2FE08150020B2CE0829E52
:1011700083B226D0D950140FE66E000EDA20E66E48
:10118000D9501A0FE66E000EDA20E66EE6EC1CF07F
:10119000E552E552E552E5520EEC00F00F0EE66E18
:1011A000010EE66EE4EC16F0E552E5520F0EE66E27
:1011B000020EE66EE4EC16F0E552E55249EF02F05D
:1011C00033EC00F0CED781B048D0F00EE66E070EBB
:1011D000E66EE4EC16F0E552E552F80EE66E080E07
:1011E000E66EE4EC16F0E552E552F00EE66E060E01
:1011F000E66EE4EC16F0E552E552100EE66E270EB0
:10120000E66EE66AE66A1EEC15F0E552E552E55236
:10121000E552829EE66A070EE66EE4EC16F0E552B1
:10122000E552E66A080EE66EE4EC16F0E552E55289
:10123000E66A060EE66EE4EC16F0E552E552100E94
:10124000E66E270EE66EE66AE66A1EEC15F0E552DB
:10125000E552E552E552828EB6D70EEC00F0E80E6C
:10126000E66E030EE66EE66AE66A1EEC15F0E552DF
:10127000E552E552E55281B2BED0828E83B234D0BF
:1012800083A2FED7D950140FE66E000EDA20E66E68
:10129000D9501A0FE66E000EDA20E66EE6EC1CF06E
:1012A000E552E552E552E5520EEC00F00F0EE66E07
:1012B000010EE66EE4EC16F0E552E5520F0EE66E16
:1012C000020EE66EE4EC16F0E552E552E80EE66E2C
:1012D000030EE66EE66AE66A1EEC15F0E552E5528C
:1012E000E552E55249EF02F033EC00F00E010C0E2E
:1012F000081901E1095105E0010E081901E1095140
:1013000005E108CE0AFE09CE0BFE08D00C0ED880EF
:101310000855000E095502E30A6B0B6B0D0E0819F8
:1013200001E109510CE1010E0A1901E10B5105E03F
:101330000C0E0A1901E10B5102E10EEC00F0180E3F
:10134000E66E0E0EE66EF3EC20F0E552E552000973
:1013500023E0130EDB0416E1100EE66E0E0EE66EB1
:10136000120EDBCFE6FF060EE66E0E0EE66E180ED0
:10137000E66E0E0EE66E93EC18F0146E070EE15E4C
:10138000145005D0010EF36E130EF3CFDBFF0E01E8
:10139000026B036B046B056B0E010535000E05191E
:1013A00009E6D880C00E0255D40E0355010E04552F
:1013B000000E055506E3022B000E0323042305232C
:1013C00019D0026B036B046B056B17510BE1010E17
:1013D000176F100EE66E080EE66EE4EC16F0E5529E
:1013E000E55208D0176BE66A080EE66EE4EC16F0DC
:1013F000E552E55240D7B5D6230EE15C02E2E16A40
:0C140000E552E16EE552E7CFD9FF120083
:04140C0042EC0FF0AF
:10141000FB0EDBCFF3FFDB06F35000090AE090EC94
:101420000FF0FA0EFBEC0FF0F3E1151CF1E1010EE9
:1014300001D0000E71EF0FF042EC0FF03B0EE124F3
:1014400002E3E168E652E16E010EDB6A020EDB6A3E
:10145000F90EDBCFF6FFFA0EDBCFF7FFFB0EDBCF8B
:10146000F8FF0800F550DF6EDF5002E195EF0EF057
:10147000250EDF5C02E088EF0EF0030EDB6A040E3F
:10148000DB6A050EDB6A060EDB6A070EDB6AAAEC76
:101490000EF02D0EDF5C0CE02B0EDF5C09E0200E61
:1014A000DF5C06E0230EDF5C03E0300EDF5C1AE158
:1014B000DF50300A14E0130A0FE0030A0AE00B0AB7
:1014C00005E0060AE4E1030EDB80E1D7030EDB82D0
:1014D000DED7030EDB84DBD7030EDB86D8D7030E03
:1014E000DB88D5D72A0EDF5C1BE1A6EC0EF0F4EC0E
:1014F0000EF010E0030EDB8008680968130EDBCFE6
:101500000DF0140EDBCF0EF073EC22F0040E06C0CB
:10151000DBFF03D0130EDDEC0EF0AAEC0EF00BD0C7
:10152000090EDB6A4BEC0FF003E0BFEC0FF0FAD7CB
:10153000090EDDEC0EF0030EDBB0DB982E0EDF5C47
:101540001BE1AAEC0EF02A0EDF5C0BE1A6EC0EF01C
:10155000F4EC0EF003E1130E2FEC0FF0AAEC0EF0FA
:101560000BD0090EDB6A4BEC0FF003E0BFEC0FF081
:10157000FAD7090E2FEC0FF0680EDF5C07E1AAEC3A
:101580000EF0680EDF5C1DE1030E18D0740EDF5CF8
:1015900017E07A0EDF5C14E0480EDF5C06E0540EC4
:1015A000DF5C03E05A0EDF5C02E1020E07D06C0E36
:1015B000DF5C03E06A0EDF5C04E1010E82EC0FF0F9
:1015C000C9DBDF506E0A01E17FD31E0A01E192D12F
:1015D000200A01E18FD13F0A01E149D11A0A01E154
:1015E00046D10D0A01E143D1200A01E140D13A0A76
:1015F00001E13DD1200A01E13AD1260A01E135D1CC
:101600000D0A01E132D11A0A01E1D9D0200A4AE0DB
:10161000300A1FE0460A0EE0250A01E083D3D950C4
:10162000F90FE96EFF0EDA20EA6E010EEE5E000E93
:10163000EE5AEE5A90EC0FF0250EE66E95DB03E1C4
:10164000151C01E169D38CEC0FF001E26BD3DB2AAE
:1016500069D3080EDB6A040EDB50010806E2040EB3
:10166000DB0454EC0FF0DB508BDB080EDB5009E0A1
:10167000030EDB50010B05E172DB01E04DD3080ED8
:10168000DB6A64DBEFCFDFFF04EC10F003E1151C35
:1016900001E142D38CEC0FF001E3DB2A60DB01E1D6
:1016A00041D33AD3070EDB5002080FE1D0EC0FF024
:1016B000030E97EC0FF00E0EEECFDBFF0F0EEECF0A
:1016C000DBFF100EEECFDBFF20D0F70EDBCF17F0E5
:1016D000F80EDBCF18F0020E175E000E185AF70E48
:1016E00017C0DBFFF80E18C0DBFF17C0E9FF18C0FA
:1016F000EAFF87EC0FF0166A0E0E14C0DBFF0F0E28
:1017000015C0DBFF100E16C0DBFF0E0EDBCFE6FFB1
:101710000F0EDBCFE6FF100EDBCFE6FF46EC23F02B
:10172000E552E552E552130E07C0DBFF140E08C068
:10173000DBFF060EDB5005E0130ECBEC0FF001E2F1
:101740006ADBEFEC0FF002E2130E37DBB2EC0FF0C6
:1017500006E0040ECBEC0FF002E2050E2EDB030ECA
:10176000DBB005D0FCDA01E0D7D2080EDB6A090E47
:10177000DB6A0E0EDBCFF6FF0F0EDBCFF7FF100E8E
:10178000DBCFF8FF0800F550DF6EDF5014E0F5EC1A
:101790000FF011E204EC10F003E1151C01E1BCD2E2
:1017A000BBDB01E3DB2A090EDB2AD9500E0FE96E01
:1017B000000ECBDBE7D7D3DA01E1B4D2ADD2C6DA83
:1017C000110EEECFDBFF120EEDCFDBFF110EDBCFE4
:1017D000E6FF120EDBCFE6FF38EC23F0E552E552D0
:1017E000130EF3CFDBFF140EF4CFDBFF060EDB503E
:1017F00004E0130ED0DB01E20EDBEFEC0FF002E2AF
:10180000130EDBDAAFDB05E0040EC5DB02E2050EEA
:10181000D4DA030EDBB005D0A2DA01E07DD2080EE7
:10182000DB6A090EDB6A110EDBCFE9FF120EDBCF9C
:10183000EAFFEFCFDFFFDF5014E0D7DB12E2E4DB9B
:1018400003E1151C01E168D267DB01E3DB2A090E25
:10185000DB2A110EDB2ADBCFE9FF120EE8E3DB2ADD
:10186000E6D77DDA01E15ED257D2030EDB8E070E9A
:10187000DB0410E195DB040E5ADB0A0EEECFDBFF32
:101880000B0EEECFDBFF0C0EEECFDBFF0D0EEECF1F
:10189000DBFF6CD0070EDB5003082CE1030EDBAE40
:1018A0000DD0B2DA020E76DAEFCF14F0156A166AAE
:1018B000176A14AE39D01568166835D0F70EDBCF2D
:1018C00015F0F80EDBCF16F0020E155E000E165A5C
:1018D000F70E15C0DBFFF80E16C0DBFF15C0E9FFE1
:1018E00016C0EAFFEFCF14F00A0E14C0DBFF0B0E98
:1018F000DB6A38D0070EDB50020809E1030EDBAECD
:1019000004D059DB16AE10D00ED055DB0DD0030E2F
:10191000DBAE12D079DA020E3DDAF9DA166A176A0E
:1019200015AE02D016681768E2DA0C0E16C0DBFF9F
:101930000D0E17C0DBFF1AD0F70EDBCF16F0F80E36
:10194000DBCF17F0020E165E000E175AF70E16C008
:10195000DBFFF80E17C0DBFF16C0E9FF17C0EAFF78
:10196000D6DAC5DA0C0EDB6A0D0EDB6A060EDB502A
:1019700005E1010EF36E050EF3CFDBFF150EDB6AFA
:10198000160EDB6AD950370F146E000EDA20156E72
:10199000390E14C0DBFF3A0E15C0DBFF380EDB6AD0
:1019A000080EDB6A0A0EAEDADF50780A12E0200A6F
:1019B00010E0280A0CE0200A0AE03F0A06E00D0ABF
:1019C00002E0200A08E1020E05D0080E03D0080E3E
:1019D000DF26100E97DA030EDBBE02D0DB92DB941B
:1019E000DB50800B24E08ADAD890030EEB50000A1B
:1019F00008E6000EEE5C000EEE58000EEE58000EEB
:101A0000EE5815E213DA0B680C680D680E6800ECEE
:101A100023F00A0E02C0DBFF0B0E03C0DBFF0C0E2F
:101A200004C0DBFF0D0E05C0DBFF2D0E08D0030E3A
:101A3000DBA202D02B0E03D0DBA408D0200EF36E65
:101A4000170EF3CFDBFF150EDB2A02D0170EDB6A71
:101A5000050EDB5003E1B7D901E189D03A0E146ECF
:101A6000490E156E000E166E070EDBCF17F0186AC2
:101A7000196A1A6A17C00BF018C00CF019C00DF0E3
:101A80001AC00EF0D3D925EC24F014500224F36EC2
:101A900015500320F46E16500420F86EF4CFF7FFB3
:101AA000F3CFF6FF0800090EF5CFDBFF580EDF5C21
:101AB0000FE1610EF36E090E7BD90AE3200E146E5E
:101AC000090EDBCFE7FF1450E75E090EE7CFDBFF1F
:101AD000070EDBCF14F0156A166A176A0FDA14C006
:101AE0000BF015C00CF016C00DF017C00EF0EECFC5
:101AF00006F0EECF07F0EECF08F0EFCF09F025ECBF
:101B000024F009C0EDFF08C0EDFF07C0EDFF06C0DF
:101B1000EFFF390EDBCFE9FFDB063A0EDBCFEAFF42
:101B200001E2DB06090EDBCFEFFF150EDB2A4BD9F6
:101B300095E1030EDBA61DD06F0EDF5C06E1C1D977
:101B400018E3150EDB285BDA14D0780EDF5C09E0B1
:101B5000580EDF5C06E0620EDF5C03E0420EDF5CE5
:101B600008E1020EF36E160EF3CFDBFF02D0150E66
:101B7000DB6A030EDB50100B0EE0040EDBCF14F01B
:101B8000050EDB50D880145406E2060EDB5003E14C
:101B9000040EDB5034DA95D90AE2050EDBCFE7FFFD
:101BA000150EDB50E75E050EE7CFDBFF02D0050E1A
:101BB000DB6A040EDBCF14F0160E45D9D88014541E
:101BC00014E2160EDBCFE6FF150EDBCFE6FF040EA8
:101BD000DBCFE6FF050EDB50E552E75CE552D8802F
:101BE000E754E552D880E7545FD9030EDB50010B70
:101BF0000BE1080EDB5008E0B2D801E08DD0080EF2
:101C0000DB50BED8080EDB6A170EDB5007E088D920
:101C1000170EF1D903E1151C01E17ED0160EDB5041
:101C200016E07ED9300EE66E9FD802E1151C74E0F6
:101C300077D9DFCFE6FFBEEC22F0E552E552E55260
:101C4000F4CF15F00001F31C02E1151C65E0050E50
:101C5000DBCF14F0160EDB50D880145409E2050EC9
:101C6000DBCFE7FF160EDB50E75E050EE7CFDBFFAD
:101C7000300EE66E050ECBD94FE1390EDB2ADBCFF5
:101C8000E9FF3A0E01E3DB2ADBCFEAFF090EEFCFD3
:101C9000DBFFDB500EE044D9090EADD902E1151C83
:101CA0003BE0390EDB2ADBCFE9FF3A0EEDE3DB2A1E
:101CB000EBD755D831E1160EDBCFE6FF080EC3D8BF
:101CC000E552E7245DD82ED0070EDB50030A1CE056
:101CD000010A14E0030A07E07BD9DBCFEEFF020E16
:101CE000DBCFEDFF1FD0F5D8196A17AE02D0186808
:101CF00019682CD8BCD819C0EEFF14D0EAD817BE8A
:101D0000186824D8B4D80ED063D9DBCFEFFF0AD03F
:101D10007BD905E1151C03E1F368F46810D0FCD809
:101D200001E3DB2A79D931EF0AF0010EDBCF14F0A1
:101D3000020EDBCF15F014C0F3FF15C0F4FF3B0E0D
:101D4000E15C02E2E16AE552E16ECBD029D9020EF4
:101D500097EF0FF061D90800F550DF6E1200200EEA
:101D6000E66E080E07EF10F0BEEC22F0E552E552E9
:101D7000E552F3CF14F0F4CF15F00001F31C12007C
:101D8000146E156AD950010F4DD91450EE26155016
:101D9000ED221200185E000E195AF70E18C0DBFF74
:101DA000F80E19C0DBFF18C0E9FF19C0EAFF1200E6
:101DB000DBCFF4FFF350F45C1200DB50E76E040E4F
:101DC000E7CFDBFF12000A0EDBCF14F00B0EDBCFE8
:101DD00015F00C0EDBCF16F00D0EDBCF17F0145004
:101DE0001510161017101200130EEECFDBFF140E95
:101DF000EDCFDBFF130EDBCF14F0140EDBCF15F0AD
:101E00000001800E15141200F70EDBCF18F0F80E4B
:101E1000DBCF19F01200050EDB50E66ED950130F20
:101E200001D9E552E750EE6EED6A12000A0EDBCFE3
:101E300006F00B0EDBCF07F00C0EDBCF08F00D0E1B
:101E4000DBCF09F01200DBCFE6FF150EDBCFE6FF9C
:101E5000050EDB50E552E724E552E7241200DB5083
:101E6000CED8010EF36E060EF3CFDBFF1200EE505C
:101E7000EFCFEAFFE96E16C0EEFF17C0EEFF18C005
:101E8000EEFF1200D9CFE6FFDACFE6FFE1CFD9FFB0
:101E9000E2CFDAFF1200DFCFE6FFE66A5FEC24F064
:101EA000E552E552F3501200E76E080EE7CFDBFF74
:101EB0001200EECF14F0EECF15F0EFCF16F0176A48
:101EC0001200050EDBCF14F0150EDB50D880145431
:101ED0001200010EDBCF16F0020EDBCF17F0186AEE
:101EE0001200E552E5CFDAFFE7CFD9FF12000A0E64
:101EF00014C0DBFF0B0E15C0DBFF1200D9500A0F18
:101F000012EF10F0F36E070EF3CFDBFF1200EECFEF
:101F100014F0EFCF15F01200010EDB2A020E1200B2
:101F2000FC0EDBCFE6FFFD0EDBCFE6FF1200145EFA
:101F3000000E155AF70E14C0DBFFF80E15C0DBFFBC
:101F400014C0E9FF15C0EAFF1200DA20EA6EEF2A9A
:101F5000EECFF6FF000EEF22EECFF7FFEF22EECF2F
:101F6000F8FF1200040EDBCFE6FF130EDB50E55244
:101F7000E75C9ADFDB5004DF060EDB501200090E2F
:101F8000DB500A0DF350DF24D00FE76E090EE7CFC8
:101F9000DBFFAAEF0EF0DB50F36E050ED8EF0EF06C
:101FA000F70EDBCF14F0F80EDBCF15F01200DFCF09
:101FB000E6FFB4EF0EF028DF030EECDE59EF0FF072
:101FC00006EC0AF0E552E552E552E552000912002E
:101FD000BDDEEE50EFCFEAFFE96E010E1200130EE8
:101FE000DB50F36E040ED8EF0EF0040EDB50F36EF0
:101FF000090ED8EF0EF0DBCFE6FFB4EF0EF0E76E80
:10200000050EE7CFDBFF12008BDFD7EF0FF0DBCF42
:10201000E6FF86DFE0EF0FF0D950F90FE96EFF0E13
:0E202000A5EF0FF0E96E000EDA20EA6E120056
:02202E00D9CF08
:10203000E6FFE1CFD9FF160EE126010EF36E100E7A
:10204000F3CFDBFFFD0EDBCFE9FFFE0EDBCFEAFFB8
:10205000EF50DE6EDD6AFB0EDBCFE9FFFC0EDBCF5F
:10206000EAFF020EEECFDBFF030EEDCFDBFFF90E32
:10207000DBCFE9FFFA0EDBCFEAFF040EEECFDBFF8A
:10208000050EEDCFDBFFF70EDBCFE9FFF80EDBCF60
:10209000EAFF060EEECFDBFF070EEDCFDBFFF50EFE
:1020A000DBCFE9FFF60EDBCFEAFF080EEECFDBFF5A
:1020B000090EEDCFDBFFF30EDBCFE9FFF40EDBCF34
:1020C000EAFFEF50E66ED9500A0FE96EDACFEAFF69
:1020D000E552E750EE6EED6AF10EDBCFE9FFF20E4E
:1020E000DBCFEAFFEF50E66ED9500C0FE96EDACF86
:1020F000EAFFE552E750EE6EED6AEF0EDBCFE9FF47
:10210000F00EDBCFEAFFEF50E66ED9500E0FE96E0E
:10211000DACFEAFFE552E750EE6EED6A100EDB040F
:1021200018E1440E146E480E156E166A14C0E6FFD0
:1021300015C0E6FF16C0E6FFD950110FE66E000E7F
:10214000DA20E66E7AEC21F0176E050EE15E17508C
:10215000DBD0100EDB50020818E13E0E146E480E64
:10216000156E166A14C0E6FF15C0E6FF16C0E6FF3E
:10217000D950110FE66E000EDA20E66E7AEC21F0EF
:10218000176E050EE15E1750BFD0100EDB5003082E
:1021900018E1380E146E480E156E166A14C0E6FF6C
:1021A00015C0E6FF16C0E6FFD950110FE66E000E0F
:1021B000DA20E66E7AEC21F0176E050EE15E17501C
:1021C000A3D0100EDB50040818E1320E146E480E36
:1021D000156E166A14C0E6FF15C0E6FF16C0E6FFCE
:1021E000D950110FE66E000EDA20E66E7AEC21F07F
:1021F000176E050EE15E175087D0100EDB500508F4
:1022000018E12C0E146E480E156E166A14C0E6FF07
:1022100015C0E6FF16C0E6FFD950110FE66E000E9E
:10222000DA20E66E7AEC21F0176E050EE15E1750AB
:102230006BD0100EDB50060818E1260E146E480E07
:10224000156E166A14C0E6FF15C0E6FF16C0E6FF5D
:10225000D950110FE66E000EDA20E66E7AEC21F00E
:10226000176E050EE15E17504FD0100EDB500708B9
:1022700018E1200E146E480E156E166A14C0E6FFA3
:1022800015C0E6FF16C0E6FFD950110FE66E000E2E
:10229000DA20E66E7AEC21F0176E050EE15E17503B
:1022A00033D0100EDB50080818E11A0E146E480ED9
:1022B000156E166A14C0E6FF15C0E6FF16C0E6FFED
:1022C000D950110FE66E000EDA20E66E7AEC21F09E
:1022D000176E050EE15E175017D0140E146E480EDF
:1022E000156E166A14C0E6FF15C0E6FF16C0E6FFBD
:1022F000D950110FE66E000EDA20E66E7AEC21F06E
:10230000176E050EE15E1750D950110FE66E000EE4
:10231000DA20E66E35EC16F0E552E5528350040BF8
:102320000AE08350010B07E08150010B04E181506A
:10233000200B01E1F3D783B410D0100EDBCF14F0E3
:10234000090EE76E1418E8AE02D0E73402D0E75069
:10235000145C02E2100EDB2A12D083B010D0100EF3
:10236000DBCF14F0000EE76E1418E8AE02D0143480
:1023700003D0E750D880145402E2100EDB068150DF
:10238000010B04E18150200B01E1EAD2100EDB04C5
:1023900046E1DECFE6FFDDCFE6FF0D0E146E480E00
:1023A000156E166A14C0E6FF15C0E6FF16C0E6FFFC
:1023B000D950110FE66E000EDA20E66E7AEC21F0AD
:1023C000176E070EE15E1750D950110FE66E000E22
:1023D000DA20E66E35EC16F0E552E55283B40ED005
:1023E000DECF14F0DDCF15F0050E145C000E15588D
:1023F00004E2DF2A010E01E3DB2A10D083B00ED005
:10240000D9CFE9FFDACFEAFF010ED880EE54000EF3
:10241000ED5404E2DF06010E01E2DB063FD2100EAE
:10242000DB5002084DE1020EDBCFE6FF030EDBCFEF
:10243000E6FF080E146E480E156E166A14C0E6FF0D
:1024400015C0E6FF16C0E6FFD950110FE66E000E6C
:10245000DA20E66E7AEC21F0176E070EE15E175077
:10246000D950110FE66E000EDA20E66E35EC16F04C
:10247000E552E55283B411D0020EDBCF14F0030E07
:10248000DBCF15F0880E145C130E155805E2020E12
:10249000DB2A030E01E3DB2A12D083B010D0D9501F
:1024A000020FE96EDACFEAFF640ED880EE54000E18
:1024B000ED5405E2020EDB06030E01E2DB06EED16F
:1024C000100EDB5003084DE1040EDBCFE6FF050ED6
:1024D000DBCFE6FF080E146E480E156E166A14C0A8
:1024E000E6FF15C0E6FF16C0E6FFD950110FE66EF5
:1024F000000EDA20E66E7AEC21F0176E070EE15E30
:102500001750D950110FE66E000EDA20E66E35EC4A
:1025100016F0E552E55283B411D0040EDBCF14F06F
:10252000050EDBCF15F0880E145C130E155805E26E
:10253000040EDB2A050E01E3DB2A12D083B010D093
:10254000D950040FE96EDACFEAFF640ED880EE545A
:10255000000EED5405E2040EDB06050E01E2DB067B
:102560009DD1100EDB5004084DE1060EDBCFE6FFD7
:10257000070EDBCFE6FF080E146E480E156E166AC6
:1025800014C0E6FF15C0E6FF16C0E6FFD950110FD4
:10259000E66E000EDA20E66E7AEC21F0176E070E7A
:1025A000E15E1750D950110FE66E000EDA20E66E8C
:1025B00035EC16F0E552E55283B411D0060EDBCFB0
:1025C00014F0070EDBCF15F0E70E145C030E155860
:1025D00005E2060EDB2A070E01E3DB2A12D083B0E8
:1025E00010D0D950060FE96EDACFEAFF640ED8801A
:1025F000EE54000EED5405E2060EDB06070E01E276
:10260000DB064CD1100EDB5005084DE1080EDBCF88
:10261000E6FF090EDBCFE6FF080E146E480E156EBE
:10262000166A14C0E6FF15C0E6FF16C0E6FFD950D3
:10263000110FE66E000EDA20E66E7AEC21F0176ECE
:10264000070EE15E1750D950110FE66E000EDA202A
:10265000E66E35EC16F0E552E55283B411D0080E63
:10266000DBCF14F0090EDBCF15F0E70E145C030E80
:10267000155805E2080EDB2A090E01E3DB2A12D009
:1026800083B010D0D950080FE96EDACFEAFF640E9C
:10269000D880EE54000EED5405E2080EDB06090E5C
:1026A00001E2DB06FBD0100EDB5006084DE10A0EFE
:1026B000DBCFE6FF0B0EDBCFE6FF080E146E480EF5
:1026C000156E166A14C0E6FF15C0E6FF16C0E6FFD9
:1026D000D950110FE66E000EDA20E66E7AEC21F08A
:1026E000176E070EE15E1750D950110FE66E000EFF
:1026F000DA20E66E35EC16F0E552E55283B411D0DF
:102700000A0EDBCF14F00B0EDBCF15F00A0E145CB3
:10271000000E155805E20A0EDB2A0B0E01E3DB2A38
:1027200012D083B010D0D9500A0FE96EDACFEAFF89
:10273000010ED880EE54000EED5405E20A0EDB06C1
:102740000B0E01E2DB06AAD0100EDB50070856E1A3
:102750000C0EDBCFE6FF0D0EDBCFE6FF080E146E8E
:10276000480E156E166A14C0E6FF15C0E6FF16C0C7
:10277000E6FFD950110FE66E000EDA20E66E7AEC15
:1027800021F0176E070EE15E1750D950110FE66E5B
:10279000000EDA20E66E35EC16F0E552E5520C0E2E
:1027A000DBCFE6FF0A0EE66EE4EC16F0E552E552EA
:1027B00083B411D00C0EDBCF14F00D0EDBCF15F06F
:1027C0000F0E145C000E155805E20C0EDB2A0D0EE0
:1027D00001E3DB2A12D083B010D0D9500C0FE96E80
:1027E000DACFEAFF010ED880EE54000EED5405E278
:1027F0000C0EDB060D0E01E2DB0650D0100EDB5096
:1028000008084CE10E0EDBCFE6FF0F0EDBCFE6FF34
:10281000080E146E480E156E166A14C0E6FF15C039
:10282000E6FF16C0E6FFD950110FE66E000EDA2063
:10283000E66E7AEC21F0176E070EE15E1750D95064
:10284000110FE66E000EDA20E66E35EC16F0E5525A
:10285000E55283B411D00E0EDBCF14F00F0EDBCF98
:1028600015F0010E145C000E155805E20E0EDB2A61
:102870000F0E01E3DB2A12D083B010D0D9500E0F17
:10288000E96EDACFEAFF000ED880EE54000EED5468
:1028900005E20E0EDB060F0E01E2DB06640EE66EAD
:1028A000E66AE66AE66A1EEC15F0E552E552E55284
:1028B000E55283B254D0FD0EDBCFE9FFFE0EDBCF35
:1028C000EAFFDFCFEFFFFB0EDBCFE9FFFC0EDBCF34
:1028D000EAFF020EDBCFEEFF030EDBCFEDFFF90EBA
:1028E000DBCFE9FFFA0EDBCFEAFF040EDBCFEEFF12
:1028F000050EDBCFEDFFF70EDBCFE9FFF80EDBCFE8
:10290000EAFF060EDBCFEEFF070EDBCFEDFFF50E85
:10291000DBCFE9FFF60EDBCFEAFF080EDBCFEEFFE1
:10292000090EDBCFEDFFF30EDBCFE9FFF40EDBCFBB
:10293000EAFF0A0EDBCFEFFFF10EDBCFE9FFF20E6D
:10294000DBCFEAFF0C0EDBCFEFFFEF0EDBCFE9FFB3
:10295000F00EDBCFEAFF0E0EDBCFEFFF65D00FD519
:10296000200EE66E4E0EE66EE66AE66A1EEC15F086
:10297000E552E552E552E55283B254D0FD0EDBCF6D
:10298000E9FFFE0EDBCFEAFFDFCFEFFFFB0EDBCF71
:10299000E9FFFC0EDBCFEAFF020EDBCFEEFF030EFA
:1029A000DBCFEDFFF90EDBCFE9FFFA0EDBCFEAFF5D
:1029B000040EDBCFEEFF050EDBCFEDFFF70EDBCF16
:1029C000E9FFF80EDBCFEAFF060EDBCFEEFF070EC6
:1029D000DBCFEDFFF50EDBCFE9FFF60EDBCFEAFF35
:1029E000080EDBCFEEFF090EDBCFEDFFF30EDBCFE2
:1029F000E9FFF40EDBCFEAFF0A0EDBCFEFFFF10EAB
:102A0000DBCFE9FFF20EDBCFEAFF0C0EDBCFEFFFEF
:102A1000EF0EDBCFE9FFF00EDBCFEAFF0E0EDBCFD0
:102A2000EFFF02D08EEF10F0160EE15C02E2E16AD9
:0C2A3000E552E16EE552E7CFD9FF12003D
:042A3C00D9CFE6FF09
:102A4000E1CFD9FF040EE126DE6ADE6ADE6ADD6AC6
:102A5000DD52DD52FB0EDBCF14F0FC0EDBCF15F0A8
:102A6000FD0EDBCF16F0FE0EDBCF17F0D89014363C
:102A7000153616361736D9CFE9FFDACFEAFF030E3F
:102A8000EBCFF3FF1750F318E8AE02D0F33408D0C1
:102A9000EE50145CEE501558EE501658EE50175884
:102AA0000AE3D9CFE9FFDACFEAFFEE2A000EEE22E1
:102AB000EE22EE22CFD7040EE15C02E2E16AE5529B
:102AC000E16EE552E7CFD9FF1200D9CFE6FFE1CFA3
:102AD000D9FFE652DF6AFE0EDB50480803E1370EED
:102AE000DF6EBCD0FE0EDB50490803E1300EDF6E16
:102AF000B5D0FE0EDB50430803E14E0EDF6EAED0C4
:102B0000FE0EDB504E0803E1150EDF6EA7D0FE0E61
:102B1000DB50440803E13D0EDF6EA0D0FE0EDB501B
:102B2000530803E15B0EDF6E99D0FE0EDB504C08BC
:102B300003E10E0EDF6E92D0FE0EDB50500803E173
:102B4000670EDF6E8BD0FE0EDB50550803E11C0EC6
:102B5000DF6E84D0FE0EDB50410803E1770EDF6E9E
:102B60007DD0FE0EDB50460803E1470EDF6E76D0C7
:102B7000FE0EDB50590803E13B0EDF6E6FD0FE0EF8
:102B8000DB50450803E14F0EDF6E68D0FE0EDB50D0
:102B90002D0803E1010EDF6E61D0FE0EDB505208FE
:102BA00003E1050EDF6E5AD0FE0EDB50540803E140
:102BB0000F0EDF6E53D0FE0EDB504F0803E17E0E8A
:102BC000DF6E4CD0FE0EDB50560803E13E0EDF6E8A
:102BD00045D0FE0EDB50300803E17E0EDF6E3ED0A6
:102BE000FE0EDB50310803E1300EDF6E37D0FE0EF3
:102BF000DB50320803E16D0EDF6E30D0FE0EDB508D
:102C0000330803E1790EDF6E29D0FE0EDB50340865
:102C100003E1330EDF6E22D0FE0EDB50350803E1F8
:102C20005B0EDF6E1BD0FE0EDB50360803E15F0E3D
:102C3000DF6E14D0FE0EDB50370803E1700EDF6E3E
:102C40000DD0FE0EDB50380803E17F0EDF6E06D09C
:102C5000FE0EDB50390802E17B0EDF6EDF5000D044
:102C6000E552E552E7CFD9FF1200D9CFE6FFE1CF19
:102C7000D9FF090EE126DE52050EDD6E030EDB6A7A
:102C8000DBCF14F0050EE76E1418E8AE02D0E7347F
:102C900002D0E750145C28E2FD0EDBCFE9FFFE0E08
:102CA000DBCFEAFFEF50E66ED950040F146EDACF97
:102CB00015F0030EDBCF16F0176A16BE1768145016
:102CC0001624E96E15501720EA6EE552E750EF6EB4
:102CD000FD0EDBCFE9FFDB2AFE0EDBCFEAFF01E3CF
:102CE000DB2A030EDB2ACCD7030EDB6AD950040F94
:102CF000146EDACF15F0030EDBCF16F0176A16BE8E
:102D0000176814501624E96E15501720EA6EEF501C
:102D100003E0030EDB2AEAD7E66A090EE66E54D812
:102D2000E552E552040EE66E0B0EE66E4DD8E55206
:102D3000E552DF6ADFCF14F0050EE76E1418E8AE37
:102D400002D0E73402D0E750145C34E2DFCF14F055
:102D5000030EDB50E76E1418E8AE02D0E73402D061
:102D6000E750145C19E2D950040F146EDACF15F055
:102D7000DFCF16F0176A16BE176814501624E96ED6
:102D800015501720EA6EEF50E66E9FDEE552E76EB3
:102D9000020EE7CFDBFF02D0020EDB6ADBCFE6FFDD
:102DA000010EDBCFE6FF10D8E552E552010EDB063F
:102DB000DF2AC0D7090EE15C02E2E16AE552E16E6A
:102DC000E552E7CFD9FF1200D9CFE6FFE1CFD9FF17
:102DD000030EE12682860A0EE66EE66AE66AE66A77
:102DE0002DDEE552E552E552E552829C0A0EE66E72
:102DF000E66AE66AE66A22DEE552E552E552E55207
:102E0000829A0A0EE66EE66AE66AE66A17DEE5521E
:102E1000E552E552E5520F0EDF6EDFCF14F01434A9
:102E200001E3EDD0DFCF14F00C0EE76E1418E8AE1E
:102E300002D0E73402D0E750145C17E3828C0A0E0C
:102E4000E66EE66AE66AE66AF9DDE552E552E552C3
:102E5000E552829C0A0EE66EE66AE66AE66AEEDDF6
:102E6000E552E552E552E552C8D0DFCF14F0080E26
:102E7000E76E1418E8AE02D0E73402D0E750145CD5
:102E80005FE3DFCF15F00B0EE76E1518E8AE02D04A
:102E9000153403D0E750D880155452E3FE0EDBCF33
:102EA00016F0176A16BE176816C0E6FF17C0E6FFD1
:102EB000080EDF5CE66ECED8E552E552E7CF17F09C
:102EC000E552E7CF16F01650F314146E1750F414B1
:102ED000156E010E14C0DBFF020E15C0DBFF010EE4
:102EE000DBCF14F0020EDBCF15F0153404E21450E2
:102EF0000008000E155402E2828A01D0829A0A0E5E
:102F0000E66EE66AE66AE66A99DDE552E552E55262
:102F1000E552828C0A0EE66EE66AE66AE66A8EDDA5
:102F2000E552E552E552E552829C0A0EE66EE66AEB
:102F3000E66AE66A83DDE552E552E552E5525DD088
:102F4000DFCF14F0070EE76E1418E8AE02D0143489
:102F500003D0E750D880145450E3FD0EDBCF16F0B9
:102F6000176A16BE176816C0E6FF17C0E6FFDFCF68
:102F7000E6FF70D8E552E552E7CF17F0E552E7CF0C
:102F800016F01650F314146E1750F414156E010E4B
:102F900014C0DBFF020E15C0DBFF0A0EE66EE66A08
:102FA000E66AE66A4BDDE552E552E552E552010E6E
:102FB000DBCF14F0020EDBCF15F0153404E2145011
:102FC0000008000E155402E2828A01D0829A0A0E8D
:102FD000E66EE66AE66AE66A31DDE552E552E552FA
:102FE000E552828C0A0EE66EE66AE66AE66A26DD3D
:102FF000E552E552E552E552829CDF060ED78296F5
:103000000A0EE66EE66AE66AE66A18DDE552E55201
:10301000E552E55282860A0EE66EE66AE66AE66ADE
:103020000DDDE552E552E552E552828C0A0EE66E60
:10303000E66AE66AE66A02DDE552E552E552E552E5
:10304000030EE15C02E2E16AE552E16EE552E7CF90
:10305000D9FF1200D9CFE6FFE1CFD9FF030EE12659
:10306000010EF36EF3CFDBFF020EDB6A010EDF6EA3
:10307000DFCF14F0FE0EDB50E76E1418E8AE02D07E
:10308000143403D0E750D880145413E3020E086EB2
:10309000096A010EDBCF0DF0020EDBCF0EF073ECF0
:1030A00022F0DE5206C0DEFF07C0DDFFDD52DF2A60
:1030B000DFD7010EDBCF14F0020EDBCF15F014C00A
:1030C000F3FF15C0F4FF030EE15C03E200D0E16AF8
:0C30D000E552E16EE552E7CFD9FF120097
:0430DC00839E640E5D
:1030E000E66EE66AE66AE66A1EEC15F0E552E5521F
:1030F000E552E5528090640EE66EE66AE66AE66A9C
:103100001EEC15F0E552E552E552E5528092640E50
:10311000E66EE66AE66AE66A1EEC15F0E552E552EE
:10312000E552E5521200D9CFE6FFE1CFD9FF090EF3
:10313000E126DF6A040EDF5C22E2FD0EDBCFE9FF51
:10314000FE0EDBCFEAFFEF50E66ED950010F146E92
:10315000DACF15F0DF500F011424E96E000E1520B0
:10316000EA6EE552E750EF6EFD0EDBCFE9FFDB2A9A
:10317000FE0EDBCFEAFF01E3DB2ADF2ADBD7FB0E03
:10318000DBCFE9FFFC0EDBCFEAFF070EEECFDBFF64
:10319000080EEDCFDBFFD950FB0FE96EFF0EDA20F2
:1031A000EA6EEECFF3FFEDCFF4FF020EEE26000E37
:1031B000EF22F3CFE9FFF4CFEAFFFB0EDBCFE9FF0D
:1031C000FC0EDBCFEAFF050EEECFDBFF060EEDCFE8
:1031D000DBFFD950FB0FE96EFF0EDA20EA6EEECF6F
:1031E000F3FFEDCFF4FF020EEE5E000EEF5AF3CFC9
:1031F000E9FFF4CFEAFF010EDB50FF0820E1020EE9
:10320000DB50AF081CE1030EDB5019E1040EDB04B8
:1032100016E1010EF36E050EF3CFDBFF060EDB6A3F
:10322000F80EDBCFE6FFF90EDBCFE6FF78EC1EF001
:10323000E552E552070EDB6A080EDB6A3ED2010E4C
:10324000DB50FF0821E1020EDB50D3081DE1030E25
:10325000DB501AE1040EDB50020816E1020EF36E99
:10326000050EF3CFDBFF060EDB6AF80EDBCFE6FFC1
:10327000F90EDBCFE6FF78EC1EF0E552E552070EC3
:10328000DB6A080EDB6A19D2010EDB50FF0821E170
:10329000020EDB50EB081DE1030EDB501AE1040EB9
:1032A000DB50040816E1030EF36E050EF3CFDBFFCF
:1032B000060EDB6AF80EDBCFE6FFF90EDBCFE6FF8A
:1032C00078EC1EF0E552E552070EDB6A080EDB6A69
:1032D000F4D1010EDB50FF0839E1020EDB50F1089A
:1032E00035E1030EDB5032E1040EDB5008082EE11D
:1032F000040EF36E050EF3CFDBFF060EDB6AFA0E4B
:10330000DBCF14F0050EE76E1418E8AE02D0E734F8
:1033100002D0E750145C0BE3F80EDBCFE6FFF90EAA
:10332000DBCFE6FF26EC1FF0E552E5520AD0F80E9F
:10333000DBCFE6FFF90EDBCFE6FFC7EC1EF0E55270
:10334000E552070EDB6A080EDB6AB7D1010EDB50CF
:10335000FF0838E1020EDB50F70834E1030EDB50C2
:1033600031E1040EDB5010082DE1050EF36EF3CFB2
:10337000DBFF060EDB6AFA0EDBCF14F0040EE76EFD
:103380001418E8AE02D0E73402D0E750145C0BE327
:10339000F80EDBCFE6FFF90EDBCFE6FF26EC1FF0E1
:1033A000E552E5520AD0F80EDBCFE6FFF90EDBCF8F
:1033B000E6FFC7EC1EF0E552E552070EDB6A080E89
:1033C000DB6A7BD1010EDB50FF0821E1020EDB50EE
:1033D000FD081DE1030EDB501AE1040EDB5020084E
:1033E00016E1060EF36E050EF3CFDBFF060EDB6A69
:1033F000F80EDBCFE6FFF90EDBCFE6FF26EC1FF081
:10340000E552E552070EDB6A080EDB6A56D1010E63
:10341000DB5039E1020EDB50030835E1030EDB50CF
:1034200032E1040EDB5040082EE1070EF36E050E6C
:10343000F3CFDBFF060EDB6AFA0EDBCF14F0020ED1
:10344000E76E1418E8AE02D0E73402D0E750145CFF
:103450000BE3F80EDBCFE6FFF90EDBCFE6FF26EC41
:103460001FF0E552E5520AD0F80EDBCFE6FFF90E69
:10347000DBCFE6FF92EC1FF0E552E552070EDB6A68
:10348000080EDB6A1AD1010EDB5039E1020EDB5067
:10349000090835E1030EDB5032E1040EDB508008F1
:1034A0002EE1080EF36E050EF3CFDBFF060EDB6A8E
:1034B000FA0EDBCF14F0030EE76E1418E8AE02D05C
:1034C000E73402D0E750145C0BE3F80EDBCFE6FFE5
:1034D000F90EDBCFE6FF26EC1FF0E552E5520AD0ED
:1034E000F80EDBCFE6FFF90EDBCFE6FF92EC1FF024
:1034F000E552E552070EDB6A080EDB6ADED0010EEC
:10350000DB5020E1020EDB500F081CE1030EDB0450
:1035100019E1040EDB5016E1090EF36E050EF3CF30
:10352000DBFF060EDB6AF80EDBCFE6FFF90EDBCF22
:10353000E6FF92EC1FF0E552E552070EDB6A080E3B
:10354000DB6ABBD0010EDB5021E1020EDB50150817
:103550001DE1030EDB50020819E1040EDB5016E1F9
:103560000A0EF36E050EF3CFDBFF060EDB6AF80ED4
:10357000DBCFE6FFF90EDBCFE6FFECEC1FF0E55208
:10358000E552070EDB6A080EDB6A97D0010EDB50AE
:1035900021E1020EDB502D081DE1030EDB50040873
:1035A00019E1040EDB5016E10B0EF36E050EF3CF9E
:1035B000DBFF060EDB6AF80EDBCFE6FFF90EDBCF92
:1035C000E6FFECEC1FF0E552E552070EDB6A080E51
:1035D000DB6A73D0010EDB5021E1020EDB50510893
:1035E0001DE1030EDB50080819E1040EDB5016E163
:1035F0000C0EF36E050EF3CFDBFF060EDB6AF80E42
:10360000DBCFE6FFF90EDBCFE6FFECEC1FF0E55277
:10361000E552070EDB6A080EDB6A4FD0D950070F60
:10362000E96EDACFEAFF0F0ED880EE54000EED54AB
:103630000FE254DD0D0EF36E050EF3CFDBFF060E29
:10364000DB6A070EDB6A080EDB6A3CEC20F035D043
:10365000D950070FE96EDACFEAFF0F0ED880EE548B
:10366000000EED542AE3070EDB2A080E01E3DB2AE5
:10367000D59E839E0A0EE66EE66AE66AE66A1EEC50
:1036800015F0E552E552E552E55280900A0EE66EDD
:10369000E66AE66AE66A1EEC15F0E552E552E55286
:1036A000E55280920A0EE66EE66AE66AE66A1EEC6B
:1036B00015F0E552E552E552E552FB0EDBCFE9FF8E
:1036C000FC0EDBCFEAFF070EDBCFEEFF080EDBCFF1
:1036D000EDFFD950FB0FE96EFF0EDA20EA6EEECF58
:1036E000F3FFEDCFF4FF020EEE26000EEF22F3CF34
:1036F000E9FFF4CFEAFFFB0EDBCFE9FFFC0EDBCFE7
:10370000EAFF050EDBCFEEFF060EDBCFEDFFD95053
:10371000FB0FE96EFF0EDA20EA6EEECFF3FFEDCF7E
:10372000F4FF020EEE5E000EEF5AF3CFE9FFF4CF86
:10373000EAFF090EE15C02E2E16AE552E16EE55260
:06374000E7CFD9FF1200E3
:0A374600D9CFE6FFE1CFD9FFE6522C
:10375000DF6ADFCF14F0020EE76E1418E8AE02D075
:10376000143403D0E750D880145402E3DF2AF1D791
:10377000E552E552E7CFD9FF1200838CE4DF808A5F
:10378000A3EF1BF0808ADFDF839CDDDF809AA3EF4D
:103790001BF0809AD8DF838CD6DF808AD4DF839CAD
:1037A000A3EF1BF0809ACFDF839CCDDF808ACBDF35
:1037B000838CA3EF1BF07F0E956E839CC4DF808A01
:1037C000C2DF809AC0DF838CBEDF3F0E956E120091
:1037D000838CB9DF808AB7DF809AA3EF1BF0D9CF43
:1037E000E6FFE1CFD9FFE652DF6A080EDF5C14E2A4
:1037F000809AA9DFFE0EDBBE02D0839C01D0838CB1
:10380000A2DF808AA0DFFE0EDBCFF3FFF39EF3463C
:10381000F3CFDBFFDF2AE9D7809A95DF838C93DF34
:10382000E552E552E7CFD9FF1200D9CFE6FFE1CF4D
:10383000D9FFE6520E01356B366B7F0E956EDF6A4F
:10384000040EDF5C11E2809A7EDF808A7CDF83AC2D
:1038500003D00E013529356F030EDF5C03E20E0144
:10386000359F3547DF2AECD7040EDF6E080EDF5C8C
:1038700011E2809A68DF808A66DF83AC03D00E0194
:103880003629366F070EDF5C03E20E01369F36479E
:10389000DF2AECD7809A57DF3F0E956E838C53DF7B
:1038A0000A0E0E013503F3503625356F355100D021
:1038B000E552E552E7CFD9FF12005FDF63DFD00E9C
:1038C000E66E8DDFE55277DFE66A89DFE55273DF6A
:1038D000E66A85DFE5526FDF65DF060EE66E37D8F4
:1038E000E552000933E1E66A010EE66E52D8E55270
:1038F000E552E66A020EE66E4CD8E552E552010E3C
:10390000E66E040EE66E45D8E552E552040EE66E0C
:10391000050EE66E3ED8E552E5520C0EE66E060E3A
:10392000E66E37D8E552E552E66A080EE66E31D803
:10393000E552E552E66A090EE66E2BD8E552E552ED
:10394000E66A0A0EE66E25D8E552E5521200D9CF96
:10395000E6FFE1CFD9FFE65215DFD00EE66E3FDF7E
:10396000E55229DFFE0EDBCFE6FF39DFE55223DF2C
:1039700010DFD10EE66E33DFE5521DDF56DFDF6E5E
:1039800027DF10DFDF5000D0E552E552E7CFD9FF47
:103990001200D9CFE6FFE1CFD9FFE652F3DED00E19
:1039A000E66E1DDFE55207DFFE0EDBCFE6FF17DF19
:1039B000E55201DFFD0EDBCFE6FF11DFE552FBDE56
:1039C000F1DEE552E552E7CFD9FF1200D9CFE6FF8D
:1039D000E1CFD9FF1A0EE126010EE66EB8DFE552FF
:1039E000DE6EDD6A020EE66EB2DFE552E66ED9509B
:1039F000020FE96EDACFEAFFE552E750EE6EED6AAC
:103A0000040EE66EA4DFE552E66ED950040FE96EAF
:103A1000DACFEAFFE552E750EE6EED6A120EDB6A8E
:103A2000130EDB6A120EDBCF14F0130EDBCF15F092
:103A3000D890155004E6030E145C000E155872E27F
:103A4000FD0EDBCFE9FFFE0EDBCFEAFFEECF16F077
:103A5000EFCF17F0D950060F146EDACF15F0020E23
:103A6000086E096A120EDBCF0DF0130EDBCF0EF0DD
:103A700073EC22F014500624E96E15500720EA6E0C
:103A800016C0EEFF17C0EDFFFB0EDBCFE9FFFC0E0B
:103A9000DBCFEAFFEECF16F0EFCF17F0D9500C0FC7
:103AA000146EDACF15F0020E086E096A120EDBCF23
:103AB0000DF0130EDBCF0EF073EC22F01450062441
:103AC000E96E15500720EA6E16C0EEFF17C0EDFF35
:103AD000D950FD0FE96EFF0EDA20EA6EEECFF3FF4C
:103AE000EDCFF4FF020EEE26000EEF22F3CFE9FF3A
:103AF000F4CFEAFFD950FB0FE96EFF0EDA20EA6E31
:103B0000EECFF3FFEDCFF4FF020EEE26000EEF2214
:103B1000F3CFE9FFF4CFEAFF120EDB2A130E01E325
:103B2000DB2A80D7DECF16F0DDCF17F0060EDB5094
:103B3000165C146E070EDB501758156E140E14C069
:103B4000DBFF150E15C0DBFF140EDBCF14F0150ED6
:103B5000DBCF15F00001800E151410E0086809682D
:103B6000140EDBCF0DF0150EDBCF0EF073EC22F050
:103B7000140E06C0DBFF150E07C0DBFF020EDBCF05
:103B800016F0030EDBCF17F0080EDB50165C146E38
:103B9000090EDB501758156E160E14C0DBFF170EFA
:103BA00015C0DBFF160EDBCF14F0170EDBCF15F0C0
:103BB0000001800E151410E008680968160EDBCFAE
:103BC0000DF0170EDBCF0EF073EC22F0160E06C0D0
:103BD000DBFF170E07C0DBFF040EDBCF16F0050E70
:103BE000DBCF17F00A0EDB50165C146E0B0EDB50A9
:103BF0001758156E180E14C0DBFF190E15C0DBFF29
:103C0000180EDBCF14F0190EDBCF15F00001800E7B
:103C1000151410E008680968180EDBCF0DF0190EB6
:103C2000DBCF0EF073EC22F0180E06C0DBFF190E8E
:103C300007C0DBFF140EDBCF16F0150EDBCF17F03D
:103C40000C0EDB501624146E0D0EDB501720156E73
:103C50000C0E14C0DBFF0D0E15C0DBFF160EDBCF04
:103C600016F0170EDBCF17F00E0EDB501624146E75
:103C70000F0EDB501720156E0E0E14C0DBFF0F0E5B
:103C800015C0DBFF180EDBCF16F0190EDBCF17F0D7
:103C9000100EDB501624146E110EDB501720156E1B
:103CA000100E14C0DBFF110E15C0DBFF0C0EDBCFB6
:103CB000E6FF080EE66E6DDEE552E5520E0EDBCF36
:103CC000E6FF090EE66E65DEE552E552100EDBCF2B
:103CD000E6FF0A0EE66E5DDEE552E5521A0EE15C85
:103CE00002E2E16AE552E16EE552E7CFD9FF120048
:103CF000D9CFE6FFE1CFD9FFE652FD0EDBCFE9FFDA
:103D0000FE0EDBCFEAFF030EEF6ED58EE66E66EC9D
:103D100021F0E552010EDF6EDFCF14F0020EE76EE8
:103D20001418E8AE02D0143403D0E750D8801454ED
:103D300029E3F00EE66E070EE66EE4EC16F0E552AF
:103D4000E552D00EE66E070EE66EE66AE66A1EECF7
:103D500015F0E552E552E552E552E66A070EE66EC9
:103D6000E4EC16F0E552E552D00EE66E070EE66E74
:103D7000E66AE66A1EEC15F0E552E552E552E552B8
:103D8000DF2ACAD7E552E552E7CFD9FF1200D9CFD3
:103D9000E6FFE1CFD9FFE652D58EFD0EDBCFE9FF7E
:103DA000FE0EDBCFEAFF010EEF6E0B0EE66E66EC49
:103DB00021F0E552010EDF6EDFCF14F0020EE76E48
:103DC0001418E8AE02D0143403D0E750D88014544D
:103DD00038E3F00EE66E070EE66EE4EC16F0E55200
:103DE000E552F80EE66E080EE66EE4EC16F0E552CB
:103DF000E552D00EE66E070EE66EE66AE66A1EEC47
:103E000015F0E552E552E552E552E66A070EE66E18
:103E1000E4EC16F0E552E552E66A080EE66EE4ECD4
:103E200016F0E552E552D00EE66E070EE66EE66A33
:103E3000E66A1EEC15F0E552E552E552E552DF2A3E
:103E4000BBD7E552E552E7CFD9FF1200D9CFE6FF45
:103E5000E1CFD9FFE652D59E839E0A0EE66EE66A52
:103E6000E66AE66A1EEC15F0E552E552E552E552C7
:103E700080900A0EE66EE66AE66AE66A1EEC15F0C7
:103E8000E552E552E552E55280920A0EE66EE66A88
:103E9000E66AE66A1EEC15F0E552E552E552E55297
:103EA000040EE66E66EC21F0E552010EDF6EDFCF08
:103EB00014F0020EE76E1418E8AE02D0143403D0EA
:103EC000E750D880145429E3F80EE66E080EE66E2B
:103ED000E4EC16F0E552E552D00EE66E070EE66E03
:103EE000E66AE66A1EEC15F0E552E552E552E55247
:103EF000E66A080EE66EE4EC16F0E552E552D00EE6
:103F0000E66E070EE66EE66AE66A1EEC15F0E5520E
:103F1000E552E552E552DF2ACAD7E552E552E7CF2E
:103F2000D9FF1200D9CFE6FFE1CFD9FFE652D58EF7
:103F3000FD0EDBCFE9FFFE0EDBCFEAFF020EEF6ED8
:103F4000010EDF6EDFCF14F0020EE76E1418E8AE3C
:103F500002D0143403D0E750D880145438E3F00E64
:103F6000E66E060EE66EE4EC16F0E552E552F80E4B
:103F7000E66E080EE66EE4EC16F0E552E552D00E61
:103F8000E66E070EE66EE66AE66A1EEC15F0E5528E
:103F9000E552E552E552E66A060EE66EE4EC16F0EE
:103FA000E552E552E66A080EE66EE4EC16F0E552DC
:103FB000E552D00EE66E070EE66EE66AE66A1EEC85
:103FC00015F0E552E552E552E552DF2ABBD7E5523E
:103FD000E552E7CFD9FF1200D9CFE6FFE1CFD9FFF5
:103FE000E652FD0EDBCFE9FFFE0EDBCFEAFF040E4B
:103FF000EF6ED58E050EE66E66EC21F0E552010EF1
:10400000DF6EDFCF14F0020EE76E1418E8AE02D0B8
:10401000143403D0E750D880145429E3F00EE66E30
:10402000060EE66EE4EC16F0E552E552D00EE66EB2
:10403000070EE66EE66AE66A1EEC15F0E552E552FA
:10404000E552E552E66A060EE66EE4EC16F0E5523D
:10405000E552D00EE66E070EE66EE66AE66A1EECE4
:1040600015F0E552E552E552E552DF2ACAD7E5528E
:10407000E552E7CFD9FF1200D9CFE6FFE1CFD9FF54
:10408000E652D59E839E0A0EE66EE66AE66AE66A08
:104090001EEC15F0E552E552E552E55280900A0E0D
:1040A000E66EE66AE66AE66A1EEC15F0E552E5524F
:1040B000E552E55280920A0EE66EE66AE66AE66A24
:1040C0001EEC15F0E552E552E552E552010EDF6EA9
:1040D000DFCF14F0020EE76E1418E8AE02D01434ED
:1040E00003D0E750D880145447E3F00EE66E070E75
:1040F000E66EE4EC16F0E552E552100EE66E080EA0
:10410000E66EE4EC16F0E552E552F00EE66E060EB1
:10411000E66EE4EC16F0E552E552100EE66E270E60
:10412000E66EE66AE66A1EEC15F0E552E552E552E7
:10413000E552E66A070EE66EE4EC16F0E552E5524B
:10414000E66A080EE66EE4EC16F0E552E552E66A21
:10415000060EE66EE4EC16F0E552E552400EE66E11
:104160001F0EE66EE66AE66A1EEC15F0E552E552B1
:10417000E552E552DF2AACD7E552E552E7CFD9FF49
:0241800012002B
:0E418200800E6F6E6E50E00BE842E842E8429D
:10419000E842E842040801E0F6D7400E726E0E01D4
:1041A000870E436FB80E446F050E456FF80E7D6F96
:1041B000FA6BFB6BF869E00EF96F010E466F476B07
:1041C000C00E796FF00E716F7269736974697569E9
:1041D000766977697869E26BE36B980EE06FE16B63
:1041E0006F6A606A1200D9CFE6FFE1CFD9FF0A0EED
:1041F000E126DF6A60AE53D063CF30FE64CF31FE7C
:1042000061CF32FE62CF33FE65CF34FE010E66CF42
:10421000DBFF020E67CFDBFF030E68CFDBFF040E70
:1042200069CFDBFF050E6ACFDBFF060E6BCFDBFF2E
:10423000070E6CCFDBFF080E6DCFDBFF609E010E1B
:10424000DF6E090EDB6A040EF36E090EDBCFF4FF9E
:10425000F350F45C24E2D950010F146EDACF15F05C
:10426000090EDB500F011424E96E000E1520EA6ED2
:10427000EF50E66EFD0EDBCFE9FFFE0EDBCFEAFF6F
:10428000E552E750EF6EFD0EDBCFE9FFDB2AFE0EB5
:10429000DBCFEAFF01E3DB2A090EDB2AD4D771BEAC
:1042A000719EDF0405E1DF6A7792010E03D002D030
:1042B000000E00D0146E0A0EE15C02E2E16AE552E3
:1042C000E16E1450E552E7CFD9FF1200D9CFE6FFD7
:1042D000E1CFD9FF0F01236B246B180E216F226BE6
:1042E000010E256FFE0EDBCF26FF2087E552E7CFBC
:0442F000D9FF1200E0
:0C42F400D9CFE6FFDACFE6FFE1CFD9FF1B
:10430000E2CFDAFFE652E652E652E652D950F90F12
:10431000146EFF0EDA20156E020E14C0DBFF030EC2
:1043200015C0DBFF020EDBCFE6FF030EDBCFE6FF9F
:10433000F90EDBCFE6FFFA0EDBCFE6FFFB0EDBCF9D
:10434000E6FFD950FC0FE66EFF0EDA20E66E1CEC9D
:104350000AF0146E070EE15C02E2E16AE552E16EDA
:104360001450F3CFDEFFF4CFDDFFFC0EDBCFE9FF0F
:10437000FD0EDBCFEAFFEF6ADECF14F0DDCF15F0E4
:1043800014C0F3FF15C0F4FF040EE15C02E2E16A21
:10439000E552E16EE552E5CFDAFFE7CFD9FF120033
:1043A000D9CFE6FFE1CFD9FF060EE126DF6A010E85
:1043B000DB6A020EDB6A030EDB6A040EDB6A050EA3
:1043C000DB6A8F0ED3147009D36E9B8C0F015C6B6C
:1043D0005CCF5DFF3F0E956E8C6ADC0E926E896A33
:1043E000140E946E8B6AC1EC20F0A6EC24F0010E42
:1043F000DB68020EDB68200EF36E040EF3CFDBFFEA
:10440000DBCFE6FF020EDBCFE6FF010EDBCFE6FFE0
:104410009BEC23F0E552E552E5529E9CF28C9D8C7C
:10442000200EF26E040EF16ED08ED66A820ED56E1C
:10443000D59EF28E060EE15C02E2E16AE552E16E83
:08444000E552E7CFD9FF12009D
:084448000E0EF66E000EF76E79
:10445000000EF86E0E010900F5502B6F0900F550A3
:104460002C6F03E12B6701D03DD00900F550266F7A
:104470000900F550276F0900F550286F0900090061
:10448000F550E96E0900F550EA6E090009000900CF
:10449000F550296F0900F5502A6F09000900F6CF81
:1044A0002DFEF7CF2EFEF8CF2FFE26CEF6FF27CE1D
:1044B000F7FF28CEF8FF0E01295302E12A5307E047
:1044C0000900F550EE6E2907F8E22A07F9D72DCE3C
:1044D000F6FF2ECEF7FF2FCEF8FF0E012B07000EB2
:0644E0002C5BBFD71200A7
:0A44E60009C013F008C012F00850DE
:1044F0000D02F4CF07F0F3CF06F009500E02F4CF0F
:1045000009F0F3CF08F00D02F3500726F45008220B
:10451000E86A092212500E02F3500726F4500822CE
:10452000E86A09220EAE99EF22F01250085E13508D
:10453000095A13AE000C0D50085E0E50095A000CBB
:1045400008C012F008500D02F4CF07F0F3CF06F0C8
:1045500009500E02F4CF09F0F3CF08F00D02F3502A
:104560000726F4500822E86A092212500E02F3507E
:0C4570000726F4500822E86A0922000C1B
:04457C00D9CFE6FFAE
:10458000DACFE6FFE1CFD9FFE2CFDAFFFB0EDBCFD8
:1045900014F0FC0EDBCF15F00001800E15141AE1AB
:1045A000FB0EDBCFE9FFFC0EDBCFEAFFEECFF3FF24
:1045B000EDCFF4FFEE2A000EEF22F3CFE9FFF4CFA8
:1045C000EAFFFD0EDBCFEFFFEF50156AF36E15C06B
:1045D000F4FF10D0FB0EDB50FE0806E1FD0EDBCF32
:1045E000E6FF8FEC24F005D0FD0EDBCFE6FF03ECF9
:1045F00000F0E552E552E5CFDAFFE7CFD9FF120030
:1046000006500B02F3CF02F0F4CF03F00C02F3508C
:104610000326000EF420046E06500D02F35004260B
:10462000000EF420056E06500E02F35005260750CA
:104630000B02F3500326F4500422000E052207500B
:104640000C02F3500426F450052207500D02F350DB
:10465000052608500B02F3500426F450052208509A
:104660000C02F350052609500B02F35005261200E8
:10467000FE0EE3CFE9FFFF0EE3CFEAFFF36AF46A31
:10468000EE5203E0F34AF42AFBD71200FF0EE3CF09
:10469000F8FFE552FF0EE3CFF7FFE552FF0EE3CF41
:1046A000F6FFE552E66AE66AE66A0900F55209E0B5
:1046B000FD0EE32A05E1FE0EE32A02E1FF0EE32AE6
:1046C000F4D7FD0EE3CF07F0FE0EE3CF08F0FF0EA8
:0646D000E3CF09F0120027
:0A46D600D9CFE6FFDACFE6FFE1CF0F
:1046E000D9FFE2CFDAFFFD0EDBCF15F015C014F0D5
:1046F000030E1514756EFF0EE76EFC0EDBCF14F083
:10470000E7501416156A1450746EFB0EDB50736E6E
:104710007F9E7F9C7F84F29E550E7E6EAA0E7E6EDB
:104720007F827FB2FED7F28E7F94E552E5CFDAFF2B
:06473000E7CFD9FF1200E3
:0A473600D9CFE6FFDACFE6FFE1CFAE
:10474000D9FFE2CFDAFFC26AC16AC06AFC0EDB5051
:104750007C0BC26EFB0EDB50C16EFD0EDB50040DF8
:10476000F350380B156EFD0EDB380F0B070B146E74
:10477000FD0EDB50800B14101510C06EFC0EDBAE6E
:1047800003D09E9C9D8CF28CC280E552E5CFDAFF6F
:06479000E7CFD9FF120083
:0A479600D9CFE6FFDACFE6FFE1CF4E
:1047A000D9FFE2CFDAFFFC0EDBCF14F0FD0EDBCF3A
:1047B00015F015C014F0156A030E1414756EFF0E73
:1047C000E76EFC0EDBCF14F0FD0EDBCF15F0E750EB
:1047D0001416156A1450746E7F9C7F9E7F800000B3
:1047E0000000735000D0E552E5CFDAFFE7CFD9FFE4
:0247F0001200B5
:0E47F200253032642D253032640030352D31F3
:10480000320050554E49200025203564004C434568
:104810002025640020202020200052544320200026
:10482000444953502000465245202000534C4F44E9
:104830004E00534C4F555000464153444E004641A4
:0A484000535550004C434520200062
:06484A00056A046A036A1E
:10485000026A200EE76ED89006360736083609360B
:1048600002360336043605360B50025C0C500358F2
:104870000D5004580E50055809E30B50025E0C50C1
:10488000035A0D50045A0E50055A062AE72EE4D753
:02489000120014
:0E489200056A046A100EE76ED89008360936E3
:1048A000043605360D50045C0E50055805E30D50D6
:0E48B000045E0E50055A082AE72EF0D71200BB
:0248BE00F36A9B
:1048C000F46AFF0EE124E96EFF0EE220EA6EED6667
:1048D00007D02F0EEF6404D03A0EEF6001D0F32A18
:0248E0001200C4
:0E48E200410EF36E00EE00F00E0E01D8120033
:1048F000EA6002D0EE6AFCD7F350E9601200EE6A7B
:02490000FCD7E2
:0E4902001DEE00F02DEE00F0F86A019C24EC92
:0E49100022F0A9EC24F024EC02F0FBD71200F8
:02491E00FF0E8A
:10492000E350ACBA04D0AF6AAB8EAC8A949CACA214
:0A493000FED7AD6EF36EF46A1200BC
:06493A0030313233343548
:0B494000363738396162636465660039
:04494C00C2909D9CDC
:02495000120053
:02495200120051
:0C49540003000000000000000000000054
:0C4960000000000001000000000000004A
:020000040030CA
:010000001DE2
:0100080000F7
:0100090000F6
:01000B00C034
:00000001FF
