:020000040000FA
:06000000DDEF27F0120005
:020006001200E6
:060008007CEF00F0120085
:02000E000100EF
:0C00100028500000000E00001C00000042
:04001C00839E0A0EA7
:10002000E66EE66AE66AE66A8BEC18F0E552E5529F
:10003000E552E55280900A0EE66EE66AE66AE66AE6
:100040008BEC18F0E552E552E552E55280920A0E2B
:10005000E66EE66AE66AE66A8BEC18F0E552E5526F
:10006000E552E55212008150200B03E08150100B45
:1000700042E1D59ED3DF838E0A0EE66EE66AE66A1B
:10008000E66A8BEC18F0E552E552E552E55281BA8A
:1000900012D00E01035102E1808001D08082640EF3
:1000A000E66EE66AE66AE66A8BEC18F0E552E5521F
:1000B000E552E552ECD781B812D00E01035102E1AE
:1000C000808201D08080640EE66EE66AE66AE66AA7
:1000D0008BEC18F0E552E552E552E552ECD79EDF85
:1000E000640EE66EE66AE66AE66A8BEC18F0E552A4
:1000F000E552E552E5521200DACFE4FFE2CFDAFF33
:10010000E9CFE4FFEACFE4FFF6CFE4FFF7CFE4FF67
:10011000F5CFE4FFF3CFE4FFF4CFE4FFFACFE4FF41
:1001200000EE00F0140EE80403E3EECFE4FFFBD78B
:1001300000EE14F0070EE80403E3EECFE4FFFBD774
:10014000E652D59EF2B4F294838E0A0EE66EE66A0B
:10015000E66AE66A8BEC18F0E552E552E552E552A4
:100160000E01120543E1035102E1809201D080901B
:100170000A0EE66EE66AE66AE66A8BEC18F0E5526D
:10018000E552E552E5520E0126510E010E5D0E01BB
:1001900027510E010F5906E2035102E1808001D080
:1001A00080820DD080900A0EE66EE66AE66AE66A04
:1001B0008BEC18F0E552E552E552E55280920A0EBA
:1001C000E66EE66AE66AE66A8BEC18F0E552E552FE
:1001D000E552E5520E010E2B000E0F235A0E0E5D56
:1001E000000E0F5902E30E6B0F6BD1D0020E125DA1
:1001F00043E1035102E1809001D080920A0EE66E45
:10020000E66AE66AE66A8BEC18F0E552E552E552DA
:10021000E5520E0128510E010E5D0E0129510E010D
:100220000F5906E2035102E1808201D080800DD097
:1002300080920A0EE66EE66AE66AE66A8BEC18F0D1
:10024000E552E552E552E55280900A0EE66EE66A06
:10025000E66AE66A8BEC18F0E552E552E552E552A3
:100260000E010E2B000E0F235A0E0E5D000E0F59BD
:1002700002E30E6B0F6B8BD0030E125D43E1035153
:1002800002E1809201D080900A0EE66EE66AE66A8C
:10029000E66A8BEC18F0E552E552E552E5520E01A4
:1002A00022510E01105D0E0123510E01115906E27B
:1002B000035102E1808001D080820DD080900A0E2F
:1002C000E66EE66AE66AE66A8BEC18F0E552E552FD
:1002D000E552E55280920A0EE66EE66AE66AE66A42
:1002E0008BEC18F0E552E552E552E5520E01102B69
:1002F000000E11235A0E105D000E115902E3106B0F
:10030000116B45D0040E125D42E1035102E1809071
:1003100001D080920A0EE66EE66AE66AE66A8BEC27
:1003200018F0E552E552E552E5520E0124510E0156
:10033000105D0E0125510E01115906E2035102E133
:10034000808201D080800DD080920A0EE66EE66A2F
:10035000E66AE66A8BEC18F0E552E552E552E552A2
:1003600080900A0EE66EE66AE66AE66A8BEC18F0A2
:10037000E552E552E552E5520E01102B000E112315
:100380005A0E105D000E115902E3106B116BF70E3F
:10039000D76ED66ED58EE55200EE1AF0070EE80441
:1003A00003E3E5CFEDFFFBD700EE13F0140EE804F6
:1003B00003E3E5CFEDFFFBD7E5CFFAFFE5CFF4FF91
:1003C000E5CFF3FFE5CFF5FFE5CFF7FFE5CFF6FF8C
:1003D000E5CFEAFFE5CFE9FFE5CFDAFF1100D9CF9E
:1003E000E6FFE1CFD9FF250EE126080EDB6A090EF4
:1003F000DB6A0A0EDB6A0B0EDB6A0C0EDB6A0D0E83
:10040000DB6A0E0EDB6A0F0EDB6A100EDB6A020E71
:10041000F36E140EF3CFDBFF150EDB6A220EDB6AE0
:10042000230EDB6A240EDB6A35EC26F0200EE66E26
:100430004E0EE66EE66AE66A8BEC18F0E552E5527F
:10044000E552E552829E0A0EE66EE66AE66AE66AC2
:100450008BEC18F0E552E552E552E5528294829613
:100460000A0EE66EE66AE66AE66A8BEC18F0E5527A
:10047000E552E552E552828C0A0EE66EE66AE66ABD
:10048000E66A8BEC18F0E552E552E552E552829AA5
:100490000A0EE66EE66AE66AE66A8BEC18F0E5524A
:1004A000E552E552E5520E01000549E1829483A22E
:1004B000FED7100EE66E270EE66EE66AE66A8BEC55
:1004C00018F0E552E552E552E55282960A0EE66EC4
:1004D000E66AE66AE66A8BEC18F0E552E552E55208
:1004E000E552828C0A0EE66EE66AE66AE66A8BECF4
:1004F00018F0E552E552E552E552829A0A0EE66E90
:10050000E66AE66AE66A8BEC18F0E552E552E552D7
:10051000E552E66A0C0EE66E4AEC1AF0E552E55238
:100520000A0EE66EE66AE66AE66A8BEC18F0E552B9
:10053000E552E552E552829483B2FED701D06EDDDA
:100540000A0EE66EE66AE66AE66A8BEC18F0E55299
:10055000E552E552E552010EE66E0C0EE66E4AECEF
:100560001AF0E552E5520A0EE66EE66AE66AE66AB7
:100570008BEC18F0E552E552E552E552010EE66EBD
:100580000C0EE66E4AEC1AF0E552E552E66A0F0EE2
:10059000E66E4AEC1AF0E552E552070EE66E0B0ED7
:1005A000E66E4AEC1AF0E552E552010EE66E0A0ECE
:1005B000E66E4AEC1AF0E552E552E66A090EE66E7E
:1005C0004AEC1AF0E552E552B0EC1FF0010EE66E6F
:1005D000FAEC1FF0E552E66ED9501C0FE96EDACF47
:1005E000EAFFE552E750EE6EED6A020EE66EFAECB7
:1005F0001FF0E552E66ED9501E0FE96EDACFEAFF22
:10060000E552E750EE6EED6A040EE66EFAEC1FF06E
:10061000E552E66ED950200FE96EDACFEAFFE552D7
:10062000E750EE6EED6A080EE66EFAEC1FF0E5524A
:10063000E66ED950160FE96EDACFEAFFE552E750C1
:10064000EE6EED6A090EE66EFAEC1FF0E552E66E0C
:10065000D950180FE96EDACFEAFFE552E750EE6E97
:10066000ED6A0A0EE66EFAEC1FF0E552E66ED9501E
:100670001A0FE96EDACFEAFFE552E750EE6EED6A47
:10068000000EE66EE66A53EC27F0E552E552E66EA0
:10069000D9500D0FE96EDACFEAFFE552E750EE6E62
:1006A000ED6AD9500D0FE96EDACFEAFFFF0EEE18B2
:1006B00001E1ED5008E0D9500D0FE96EDACFEAFF05
:1006C000EE50ED100AE1020EE66E000EE66EE66AEE
:1006D00076EC26F0E552E552E552000EE66EE66A4B
:1006E00053EC27F0E552E552E76E140EE7CFDBFF3F
:1006F000010EE66EE66A53EC27F0E552E552E66E2F
:10070000D9500D0FE96EDACFEAFFE552E750EE6EF1
:10071000ED6AD9500D0FE96EDACFEAFFFF0EEE1841
:1007200001E1ED5008E0D9500D0FE96EDACFEAFF94
:10073000EE50ED100AE12D0EE66E010EE66EE66A51
:1007400076EC26F0E552E552E552020EE66EE66AD8
:1007500053EC27F0E552E552E66ED9500D0FE96EE5
:10076000DACFEAFFE552E750EE6EED6AD9500D0F91
:10077000E96EDACFEAFFFF0EEE1801E1ED5008E076
:10078000D9500D0FE96EDACFEAFFEE50ED1009E116
:10079000E66A020EE66EE66A76EC26F0E552E5526F
:1007A000E552010EE66EE66A53EC27F0E552E5529B
:1007B000E66ED9500D0FE96EDACFEAFFE552E75049
:1007C000EE6EED6A020EE66EE66A53EC27F0E55235
:1007D000E552E66ED9500F0FE96EDACFEAFFE55227
:1007E000E750EE6EED6A0F0EDBCF14F0100EDBCF8C
:1007F00015F0640E086E096A0D0EDBCF0DF00E0EBB
:10080000DBCF0EF030EC25F0065014240E01226FE1
:10081000075015200E01236F030EE66EE66A53ECB7
:1008200027F0E552E552E66ED9500D0FE96EDACFAA
:10083000EAFFE552E750EE6EED6AD9500D0FE96E12
:10084000DACFEAFFFF0EEE1801E1ED5008E0D950D3
:100850000D0FE96EDACFEAFFEE50ED100AE12D0E32
:10086000E66E030EE66EE66A76EC26F0E552E55299
:10087000E552040EE66EE66A53EC27F0E552E552C7
:10088000E66ED9500D0FE96EDACFEAFFE552E75078
:10089000EE6EED6AD9500D0FE96EDACFEAFFFF0E6A
:1008A000EE1801E1ED5008E0D9500D0FE96EDACFF6
:1008B000EAFFEE50ED1009E1E66A040EE66EE66A24
:1008C00076EC26F0E552E552E552030EE66EE66A56
:1008D00053EC27F0E552E552E66ED9500D0FE96E64
:1008E000DACFEAFFE552E750EE6EED6A040EE66EEF
:1008F000E66A53EC27F0E552E552E66ED9500F0F49
:10090000E96EDACFEAFFE552E750EE6EED6A0F0EC0
:10091000DBCF14F0100EDBCF15F0640E086E096A01
:100920000D0EDBCF0DF00E0EDBCF0EF030EC25F010
:10093000065014240E01246F075015200E01256F58
:10094000050EE66EE66A53EC27F0E552E552E66ED8
:10095000D9500D0FE96EDACFEAFFE552E750EE6E9F
:10096000ED6AD9500D0FE96EDACFEAFFFF0EEE18EF
:1009700001E1ED5008E0D9500D0FE96EDACFEAFF42
:10098000EE50ED100AE1080EE66E050EE66EE66A20
:1009900076EC26F0E552E552E552060EE66EE66A82
:1009A00053EC27F0E552E552E66ED9500D0FE96E93
:1009B000DACFEAFFE552E750EE6EED6AD9500D0F3F
:1009C000E96EDACFEAFFFF0EEE1801E1ED5008E024
:1009D000D9500D0FE96EDACFEAFFEE50ED1009E1C4
:1009E000E66A060EE66EE66A76EC26F0E552E55219
:1009F000E552050EE66EE66A53EC27F0E552E55245
:100A0000E66ED9500D0FE96EDACFEAFFE552E750F6
:100A1000EE6EED6A060EE66EE66A53EC27F0E552DE
:100A2000E552E66ED9500F0FE96EDACFEAFFE552D4
:100A3000E750EE6EED6A0F0EDBCF14F0100EDBCF39
:100A400015F0640E086E096A0D0EDBCF0DF00E0E68
:100A5000DBCF0EF030EC25F0065014240E01266F8B
:100A6000075015200E01276F070EE66EE66A53EC5D
:100A700027F0E552E552E66ED9500D0FE96EDACF58
:100A8000EAFFE552E750EE6EED6AD9500D0FE96EC0
:100A9000DACFEAFFFF0EEE1801E1ED5008E0D95081
:100AA0000D0FE96EDACFEAFFEE50ED100AE1080E05
:100AB000E66E070EE66EE66A76EC26F0E552E55243
:100AC000E552080EE66EE66A53EC27F0E552E55271
:100AD000E66ED9500D0FE96EDACFEAFFE552E75026
:100AE000EE6EED6AD9500D0FE96EDACFEAFFFF0E18
:100AF000EE1801E1ED5008E0D9500D0FE96EDACFA4
:100B0000EAFFEE50ED1009E1E66A080EE66EE66ACD
:100B100076EC26F0E552E552E552070EE66EE66AFF
:100B200053EC27F0E552E552E66ED9500D0FE96E11
:100B3000DACFEAFFE552E750EE6EED6A080EE66E98
:100B4000E66A53EC27F0E552E552E66ED9500F0FF6
:100B5000E96EDACFEAFFE552E750EE6EED6A0F0E6E
:100B6000DBCF14F0100EDBCF15F0640E086E096AAF
:100B70000D0EDBCF0DF00E0EDBCF0EF030EC25F0BE
:100B8000065014240E01286F075015200E01296FFE
:100B9000090EE66EE66A53EC27F0E552E552E66E82
:100BA000D9500D0FE96EDACFEAFFE552E750EE6E4D
:100BB000ED6AD9500D0FE96EDACFEAFFFF0EEE189D
:100BC00001E1ED5008E0D9500D0FE96EDACFEAFFF0
:100BD000EE50ED100AE1070EE66E090EE66EE66ACB
:100BE00076EC26F0E552E552E552090EE66EE66A2D
:100BF00053EC27F0E552E552E76E110EE7CFDBFF2D
:100C00000A0EE66EE66A53EC27F0E552E552E66E10
:100C1000D9500D0FE96EDACFEAFFE552E750EE6EDC
:100C2000ED6AD9500D0FE96EDACFEAFFFF0EEE182C
:100C300001E1ED5008E0D9500D0FE96EDACFEAFF7F
:100C4000EE50ED100AE1040EE66E0A0EE66EE66A5C
:100C500076EC26F0E552E552E5520A0EE66EE66ABB
:100C600053EC27F0E552E552E76E130EE7CFDBFFBA
:100C70000B0EE66EE66A53EC27F0E552E552E66E9F
:100C8000D9500D0FE96EDACFEAFFE552E750EE6E6C
:100C9000ED6AD9500D0FE96EDACFEAFFFF0EEE18BC
:100CA00001E1ED5008E0D9500D0FE96EDACFEAFF0F
:100CB000EE50ED1009E1E66A0B0EE66EE66A76ECA0
:100CC00026F0E552E552E5520B0EE66EE66A53EC6D
:100CD00027F0E552E552E76E120EE7CFDBFF0C0E70
:100CE000E66EE66A53EC27F0E552E552E66ED9501F
:100CF0000D0FE96EDACFEAFFE552E750EE6EED6ACE
:100D0000D9500D0FE96EDACFEAFFFF0EEE1801E1C0
:100D1000ED5008E0D9500D0FE96EDACFEAFFEE5042
:100D2000ED1009E1E66A0C0EE66EE66A76EC26F056
:100D3000E552E552E5520C0EE66EE66A53EC27F0FA
:100D4000E552E5520E01036F0D0EE66EE66A53ECB6
:100D500027F0E552E552E66ED9500D0FE96EDACF75
:100D6000EAFFE552E750EE6EED6AD9500D0FE96EDD
:100D7000DACFEAFFFF0EEE1801E1ED5008E0D9509E
:100D80000D0FE96EDACFEAFFEE50ED100AE1010E29
:100D9000E66E0D0EE66EE66A76EC26F0E552E5525A
:100DA000E5520D0EE66EE66A53EC27F0E552E55289
:100DB000E76E0C0EE7CFDBFF130EDBCFE6FF0A0E6C
:100DC000E66E4AEC1AF0E552E552040EE66E0B0EA2
:100DD000E66E4AEC1AF0E552E5520E01000558E1C4
:100DE0000E01006BE90E146E4D0E156E166A14C0DE
:100DF000E6FF15C0E6FF16C0E6FFD9CFE6FFDACF63
:100E0000E6FF4EEC25F0176E050EE15E1750D9CFC8
:100E1000E6FFDACFE6FFA2EC19F0E552E5520C0E40
:100E2000DB042AE1E40E146E4D0E156E166A14C032
:100E3000E6FF15C0E6FF16C0E6FFD9CFE6FFDACF22
:100E4000E6FF4EEC25F0176E050EE15E1750D9CF88
:100E5000E6FFDACFE6FFA2EC19F0E552E552400ECC
:100E6000E66E0D0EE66E030EE66EE66A8BEC18F08B
:100E7000E552E552E552E552200EE66E4E0EE66E64
:100E8000E66AE66A8BEC18F0E552E552E552E55267
:100E9000E66AD5EC24F0E5528150010B34E1815033
:100EA000100B31E1DE0E146E4D0E156E166A14C075
:100EB000E6FF15C0E6FF16C0E6FFD9CFE6FFDACFA2
:100EC000E6FF4EEC25F0176E050EE15E1750D9CF08
:100ED000E6FFDACFE6FFA2EC19F0E552E5528150C9
:100EE000010B10E18150100B0DE1200EE66E4E0E4D
:100EF000E66EE66AE66A8BEC18F0E552E552E552DA
:100F0000E552EDD787D18150010B01E083D18150AB
:100F1000200B01E07FD1D9500C0FE66E000EDA20D5
:100F2000E66E030EE66E0E0EE66ED950120FE66EFA
:100F3000000EDA20E66ED950130FE66E000EDA20AE
:100F4000E66ED950110FE66E000EDA20E66E280E1E
:100F5000E66E0E0EE66E260EE66E0E0EE66E240EA3
:100F6000E66E0E0EE66E220EE66E0E0EE66ED950A0
:100F7000140FE66E000EDA20E66E05EC0CF0146E2F
:100F8000140EE15E1450140EDBCFE6FF000EE66E89
:100F9000E66A76EC26F0E552E552E552640E146EF0
:100FA000156A22CE08F023CE09F014C00DF015C04A
:100FB0000EF0A5EC27F00D0E08C0DBFF0E0E09C0E9
:100FC000DBFF640E086E096A0D0EDBCF0DF00E0E0E
:100FD000DBCF0EF030EC25F00E010650225D146ED2
:100FE00007502359156E0F0E14C0DBFF100E15C0ED
:100FF000DBFF0D0EDBCFE6FF010EE66EE66A76EC58
:1010000026F0E552E552E5520F0EDBCFE6FF020E69
:10101000E66EE66A76EC26F0E552E552E552640E9D
:10102000146E156A24CE08F025CE09F014C00DF018
:1010300015C00EF0A5EC27F00D0E08C0DBFF0E0E5C
:1010400009C0DBFF640E086E096A0D0EDBCF0DF0E0
:101050000E0EDBCF0EF030EC25F00E010650245DB5
:10106000146E07502559156E0F0E14C0DBFF100EBD
:1010700015C0DBFF0D0EDBCFE6FF030EE66EE66A62
:1010800076EC26F0E552E552E5520F0EDBCFE6FF97
:10109000040EE66EE66A76EC26F0E552E552E5527D
:1010A000640E146E156A26CE08F027CE09F014C01F
:1010B0000DF015C00EF0A5EC27F00D0E08C0DBFFFB
:1010C0000E0E09C0DBFF640E086E096A0D0EDBCF41
:1010D0000DF00E0EDBCF0EF030EC25F00E010650B9
:1010E000265D146E07502759156E0F0E14C0DBFFD6
:1010F000100E15C0DBFF0D0EDBCFE6FF050EE66E12
:10110000E66A76EC26F0E552E552E5520F0EDBCFAB
:10111000E6FF060EE66EE66A76EC26F0E552E5524C
:10112000E552640E146E156A28CE08F029CE09F037
:1011300014C00DF015C00EF0A5EC27F00D0E08C080
:10114000DBFF0E0E09C0DBFF640E086E096A0D0E90
:10115000DBCF0DF00E0EDBCF0EF030EC25F00E01E4
:101160000650285D146E07502959156E0F0E14C0D5
:10117000DBFF100E15C0DBFF0D0EDBCFE6FF070E09
:10118000E66EE66A76EC26F0E552E552E5520F0E81
:10119000DBCFE6FF080EE66EE66A76EC26F0E55257
:1011A000E552E552110EDBCFE6FF090EE66EE66A68
:1011B00076EC26F0E552E552E552130EDBCFE6FF62
:1011C0000A0EE66EE66A76EC26F0E552E552E55246
:1011D000120EDBCFE6FF0B0EE66EE66A76EC26F02B
:1011E000E552E552E55203CEE6FF0C0EE66EE66AE6
:1011F00076EC26F0E552E552E5520C0EDBCFE6FF29
:101200000D0EE66EE66A76EC26F0E552E552E55202
:1012100022EF02F0140EDB0423E126CE26FE27CEB9
:1012200027FE0A0E0D6E0E6A26CE08F027CE09F0B4
:10123000A5EC27F008C026FE09C027FE28CE28FE10
:1012400029CE29FE060E0D6E0E6A28CE08F029CE94
:1012500009F0A5EC27F008C028FE09C029FE49D0F6
:10126000140EDB5002081FE126CE26FE27CE27FEF5
:101270000D0E0D6E0E6A26CE08F027CE09F0A5ECF5
:1012800027F008C026FE09C027FE28CE28FE29CE5A
:1012900029FE030E0F0B0E0105E0D89029332833E9
:1012A000E806FBE126D0140EDB50030822E126CE2F
:1012B00026FE27CE27FE0C0E0D6E0E6A26CE08F0F7
:1012C00027CE09F0A5EC27F008C026FE09C027FEAE
:1012D00028CE28FE29CE29FE0B0E0D6E0E6A28CED2
:1012E00008F029CE09F0A5EC27F008C028FE09C0B7
:1012F00029FE22CE22FE23CE23FE320E0D6E0E6A72
:1013000022CE08F023CE09F0A5EC27F008C022FE7B
:1013100009C023FE24CE24FE25CE25FE320E0D6EFE
:101320000E6A24CE08F025CE09F0A5EC27F008C0FF
:1013300024FE09C025FE070EE66E0B0EE66E4AEC93
:101340001AF0E552E5527E0EE66E010EE66E4AECAC
:101350001AF0E552E552FE0EE66E020EE66E4AEC1B
:101360001AF0E552E552E66A030EE66E4AEC1AF010
:10137000E552E552E66A040EE66E4AEC1AF0E552D2
:10138000E552E66A050EE66E4AEC1AF0E552E552C1
:10139000E66A060EE66E4AEC1AF0E552E552E66A97
:1013A000070EE66E4AEC1AF0E552E552E66A080EC0
:1013B000E66E4AEC1AF0E552E552120EDB0429E122
:1013C000160EDBCFE6FF170EDBCFE6FF180EDBCFE6
:1013D000E6FF190EDBCFE6FFD40E146E4D0E156E30
:1013E000166A14C0E6FF15C0E6FF16C0E6FFD9CFA7
:1013F000E6FFDACFE6FF4EEC25F0176E090EE15E50
:101400001750D9CFE6FFDACFE6FFA2EC19F0E5528C
:10141000E552070EE66E0B0EE66E4AEC1AF0E55248
:10142000E552839E640EE66EE66AE66AE66A8BEC37
:1014300018F0E552E552E552E5528090640EE66EF2
:10144000E66AE66AE66A8BEC18F0E552E552E55288
:10145000E5528092640EE66EE66AE66AE66A8BEC16
:1014600018F0E552E552E552E55282848150010BB5
:101470003DE08150020B3AE004000E01006B829EB9
:101480000EEC00F083B22FD00E01010E006FD95088
:10149000160FE66E000EDA20E66ED9501C0FE66ECF
:1014A000000EDA20E66E39EC20F0E552E552E55206
:1014B000E552D59E0EEC00F00F0EE66E010EE66EC4
:1014C0004AEC1AF0E552E5520F0EE66E020EE66E99
:1014D0004AEC1AF0E552E552010EE66ED5EC24F026
:1014E000E55222EF02F033EC00F0C0D781B075D0A6
:1014F00004000E01006B83B226D0D950160FE66EA1
:10150000000EDA20E66ED9501C0FE66E000EDA20CF
:10151000E66E39EC20F0E552E552E552E5520EEC6C
:1015200000F00F0EE66E010EE66E4AEC1AF0E55280
:10153000E5520F0EE66E020EE66E4AEC1AF0E55228
:10154000E55222EF02F00EEC00F0F00EE66E070E10
:10155000E66E4AEC1AF0E552E552F80EE66E080E19
:10156000E66E4AEC1AF0E552E552F00EE66E060E13
:10157000E66E4AEC1AF0E552E552100EE66E270EC2
:10158000E66EE66AE66A8BEC18F0E552E552E55243
:10159000E552829EE66A070EE66E4AEC1AF0E552C4
:1015A000E552E66A080EE66E4AEC1AF0E552E5529C
:1015B000E66A060EE66E4AEC1AF0E552E552100EA7
:1015C000E66E270EE66EE66AE66A8BEC18F0E552E8
:1015D000E552E552E552828E89D70EEC00F0E80E16
:1015E000E66E030EE66EE66AE66A8BEC18F0E552EC
:1015F000E552E552E55281B2FDD004000E01006BC8
:10160000838E0A0EE66EE66AE66AE66A8BEC18F0EE
:10161000E552E552E552E55283B23DD00E01010E8E
:10162000006F83A2FED7D950160FE66E000EDA20A7
:10163000E66ED9501C0FE66E000EDA20E66E39EC2D
:1016400020F0E552E552E552E552D59E0EEC00F051
:101650000F0EE66E010EE66E4AEC1AF0E552E55208
:101660000F0EE66E020EE66E4AEC1AF0E552E552F7
:10167000E80EE66E030EE66EE66AE66A8BEC18F09C
:10168000E552E552E552E552010EE66ED5EC24F046
:10169000E55222EF02F033EC00F00E010C0E0A19B5
:1016A00001E10B512AE00E01010E0A1901E10B5173
:1016B00024E00E01020E0A1901E10B511EE00E0199
:1016C000030E0A1901E10B5118E00E01040E0A196C
:1016D00001E10B5112E00E01090E0A1901E10B5153
:1016E0000CE00E010A0E0A1901E10B5106E00E0191
:1016F0000B0E0A1901E10B5105E10E010C2B000E36
:101700000D2322D00CCE14F00DCE15F0166A16342F
:10171000010E161807E6D880A00E1454860E155434
:10172000010E16540BE20D0E0E010A6F0B6B0E012B
:101730000C6B0D6BD59E0EEC00F006D00E010C6B01
:101740000D6BD59E0EEC00F0D59E0EEC00F01C0E3D
:10175000E66E0E0EE66E62EC24F0E552E5520009EC
:1017600024E0828E150EDB0416E1120EE66E0E0EDC
:10177000E66E140EDBCFE6FF080EE66E0E0EE66E8A
:101780001C0EE66E0E0EE66EF9EC1BF0146E070EE4
:10179000E15E145005D0010EF36E150EF3CFDBFFA2
:1017A0000E01046B056B066B076B0E010735000E0F
:1017B000071909E6D880000E0455E20E0555040EFF
:1017C0000655000E075507E30E01042B000E0523F6
:1017D000062307230ED00E01046B056B066B076B07
:1017E000A7EC23F0828E010E000902E0829E01D058
:1017F000828E01D73AD6250EE15C02E2E16AE5521B
:0A180000E16EE552E7CFD9FF1200B8
:06180A00D9CFE6FFE1CF9B
:10181000D9FF1C0EE126010EF36E140EF3CFDBFF91
:101820001B0EDB6AFD0EDBCFE9FFFE0EDBCFEAFF0E
:10183000EF50DE6EDD6AFB0EDBCFE9FFFC0EDBCF87
:10184000EAFF020EEECFDBFF030EEDCFDBFFF90E5A
:10185000DBCFE9FFFA0EDBCFEAFF040EEECFDBFFB2
:10186000050EEDCFDBFFF70EDBCFE9FFF80EDBCF88
:10187000EAFF060EEECFDBFF070EEDCFDBFFF50E26
:10188000DBCFE9FFF60EDBCFEAFF080EEECFDBFF82
:10189000090EEDCFDBFFF30EDBCFE9FFF40EDBCF5C
:1018A000EAFFEF50E66ED9500A0FE96EDACFEAFF91
:1018B000E552E750EE6EED6AF10EDBCFE9FFF20E76
:1018C000DBCFEAFFEF50E66ED9500C0FE96EDACFAE
:1018D000EAFFE552E750EE6EED6AEF0EDBCFE9FF6F
:1018E000F00EDBCFEAFFEF50E66ED9500E0FE96E37
:1018F000DACFEAFFE552E750EE6EED6AED0EDBCF90
:10190000E9FFEE0EDBCFEAFFEF50E66ED950100F85
:10191000E96EDACFEAFFE552E750EE6EED6AEB0EC4
:10192000DBCFE9FFEC0EDBCFEAFFEFCF14F0156A57
:1019300014BE1568120E14C0DBFF130E15C0DBFFBA
:101940001B0EDB2ADBCF14F0640EE76E1418E8AE32
:1019500002D0143403D0E750D880145402E21B0E96
:10196000DB6A1B0EDBCF14F014C009F0020E0E6E02
:10197000E9EC24F0055011E1C00EE66E060EE66EAD
:101980004AEC1AF0E552E552C00EE66E070EE66E1E
:101990004AEC1AF0E552E5520ED0E66A060EE66E03
:1019A0004AEC1AF0E552E552E66A070EE66E4AEC9A
:1019B0001AF0E552E552070EE66E0B0EE66E4AECA3
:1019C0001AF0E552E552140EDB0418E1390E146EDC
:1019D0004E0E156E166A14C0E6FF15C0E6FF16C05F
:1019E000E6FFD950150FE66E000EDA20E66E4EECDB
:1019F00025F0176E050EE15E175013D1140EDB5063
:101A0000020818E1330E146E4E0E156E166A14C0DD
:101A1000E6FF15C0E6FF16C0E6FFD950150FE66ECB
:101A2000000EDA20E66E4EEC25F0176E050EE15E34
:101A30001750F7D0140EDB50030818E12D0E146E6A
:101A40004E0E156E166A14C0E6FF15C0E6FF16C0EE
:101A5000E6FFD950150FE66E000EDA20E66E4EEC6A
:101A600025F0176E050EE15E1750DBD0140EDB502B
:101A7000040818E1270E146E4E0E156E166A14C077
:101A8000E6FF15C0E6FF16C0E6FFD950150FE66E5B
:101A9000000EDA20E66E4EEC25F0176E050EE15EC4
:101AA0001750BFD0140EDB50050818E1210E146E3C
:101AB0004E0E156E166A14C0E6FF15C0E6FF16C07E
:101AC000E6FFD950150FE66E000EDA20E66E4EECFA
:101AD00025F0176E050EE15E1750A3D0140EDB50F3
:101AE000060818E11B0E146E4E0E156E166A14C011
:101AF000E6FF15C0E6FF16C0E6FFD950150FE66EEB
:101B0000000EDA20E66E4EEC25F0176E050EE15E53
:101B1000175087D0140EDB50070818E1150E146E0D
:101B20004E0E156E166A14C0E6FF15C0E6FF16C00D
:101B3000E6FFD950150FE66E000EDA20E66E4EEC89
:101B400025F0176E050EE15E17506BD0140EDB50BA
:101B5000080818E10F0E146E4E0E156E166A14C0AA
:101B6000E6FF15C0E6FF16C0E6FFD950150FE66E7A
:101B7000000EDA20E66E4EEC25F0176E050EE15EE3
:101B800017504FD0140EDB50090818E1090E146EDF
:101B90004E0E156E166A14C0E6FF15C0E6FF16C09D
:101BA000E6FFD950150FE66E000EDA20E66E4EEC19
:101BB00025F0176E050EE15E175033D0140EDB5082
:101BC0000A0818E1010E146E4E0E156E166A14C046
:101BD000E6FF15C0E6FF16C0E6FFD950150FE66E0A
:101BE000000EDA20E66E4EEC25F0176E050EE15E73
:101BF000175017D0FB0E146E4D0E156E166A14C0DA
:101C0000E6FF15C0E6FF16C0E6FFD950150FE66ED9
:101C1000000EDA20E66E4EEC25F0176E050EE15E42
:101C20001750D950150FE66E000EDA20E66EA2ECC2
:101C300019F0E552E55283B410D0140EDBCF14F046
:101C40000A0EE76E1418E8AE02D0E73402D0E7506F
:101C5000145C02E2140EDB2A12D083B010D0140EF2
:101C6000DBCF14F0000EE76E1418E8AE02D0143487
:101C700003D0E750D880145402E2140EDB068150E2
:101C8000010B04E18150200B01E1B4D3E66A080E98
:101C9000E66E4AEC1AF0E552E552E66A060EE66E8A
:101CA0004AEC1AF0E552E552E66A070EE66E4AEC97
:101CB0001AF0E552E552140EDB0446E1DECFE6FFF2
:101CC000DDCFE6FFF40E146E4D0E156E166A14C0CD
:101CD000E6FF15C0E6FF16C0E6FFD950150FE66E09
:101CE000000EDA20E66E4EEC25F0176E070EE15E70
:101CF0001750D950150FE66E000EDA20E66EA2ECF2
:101D000019F0E552E55283B00ED0DECF14F0DDCFEE
:101D100015F0050E145C000E155804E2DF2A010EC2
:101D200001E3DB2A10D083B40ED0D9CFE9FFDACF9C
:101D3000EAFF010ED880EE54000EED5404E2DF06F7
:101D4000010E01E2DB06E1D2140EDB5002084DE188
:101D5000020EDBCFE6FF030EDBCFE6FFEF0E146EC5
:101D60004D0E156E166A14C0E6FF15C0E6FF16C0CC
:101D7000E6FFD950150FE66E000EDA20E66E4EEC47
:101D800025F0176E070EE15E1750D950150FE66E5D
:101D9000000EDA20E66EA2EC19F0E552E55283B0AF
:101DA00011D0020EDBCF14F0030EDBCF15F0880E3E
:101DB000145C130E155805E2020EDB2A030E01E334
:101DC000DB2A12D083B410D0D950020FE96EDACFDB
:101DD000EAFFE80ED880EE54030EED5405E2020E41
:101DE000DB06030E01E2DB0690D2140EDB50030883
:101DF0004DE1040EDBCFE6FF050EDBCFE6FFEF0E75
:101E0000146E4D0E156E166A14C0E6FF15C0E6FF7F
:101E100016C0E6FFD950150FE66E000EDA20E66E0A
:101E20004EEC25F0176E070EE15E1750D950150FD6
:101E3000E66E000EDA20E66EA2EC19F0E552E552ED
:101E400083B011D0040EDBCF14F0050EDBCF15F0FC
:101E5000880E145C130E155805E2040EDB2A050EDD
:101E600001E3DB2A12D083B410D0D950040FE96EFD
:101E7000DACFEAFFE80ED880EE54030EED5405E207
:101E8000040EDB06050E01E2DB063FD2140EDB502A
:101E900004084DE1060EDBCFE6FF070EDBCFE6FFC1
:101EA000EF0E146E4D0E156E166A14C0E6FF15C0C7
:101EB000E6FF16C0E6FFD950150FE66E000EDA20D9
:101EC000E66E4EEC25F0176E070EE15E1750D95006
:101ED000150FE66E000EDA20E66EA2EC19F0E55260
:101EE000E55283B011D0060EDBCF14F0070EDBCF26
:101EF00015F0E70E145C030E155805E2060EDB2AFA
:101F0000070E01E3DB2A12D083B410D0D950060F9C
:101F1000E96EDACFEAFF640ED880EE54000EED547D
:101F200005E2060EDB06070E01E2DB06EED1140E1B
:101F3000DB5005084DE1080EDBCFE6FF090EDBCFD5
:101F4000E6FFEF0E146E4D0E156E166A14C0E6FF16
:101F500015C0E6FF16C0E6FFD950150FE66E000E5D
:101F6000DA20E66E4EEC25F0176E070EE15E175094
:101F7000D950150FE66E000EDA20E66EA2EC19F0CD
:101F8000E552E55283B011D0080EDBCF14F0090EF4
:101F9000DBCF15F0E70E145C030E155805E2080EB2
:101FA000DB2A090E01E3DB2A12D083B410D0D9500A
:101FB000080FE96EDACFEAFF640ED880EE54000E07
:101FC000ED5405E2080EDB06090E01E2DB069DD1A9
:101FD000140EDB5006084DE10A0EDBCFE6FF0B0EB8
:101FE000DBCFE6FFEF0E146E4D0E156E166A14C0B1
:101FF000E6FF15C0E6FF16C0E6FFD950150FE66EE6
:10200000000EDA20E66E4EEC25F0176E070EE15E4C
:102010001750D950150FE66E000EDA20E66EA2ECCE
:1020200019F0E552E55283B011D00A0EDBCF14F05F
:102030000B0EDBCF15F00A0E145C000E155805E2EE
:102040000A0EDB2A0B0E01E3DB2A12D083B410D078
:10205000D9500A0FE96EDACFEAFF010ED880EE54AC
:10206000000EED5405E20A0EDB060B0E01E2DB0664
:102070004CD1140EDB50070856E10C0EDBCFE6FF07
:102080000D0EDBCFE6FFEF0E146E4D0E156E166AC9
:1020900014C0E6FF15C0E6FF16C0E6FFD950150FC5
:1020A000E66E000EDA20E66E4EEC25F0176E070E97
:1020B000E15E1750D950150FE66E000EDA20E66E7D
:1020C000A2EC19F0E552E5520C0EDBCFE6FF0A0E4A
:1020D000E66E4AEC1AF0E552E55283B011D00C0ED0
:1020E000DBCF14F00D0EDBCF15F00F0E145C000EDD
:1020F000155805E20C0EDB2A0D0E01E3DB2A12D087
:1021000083B410D0D9500C0FE96EDACFEAFF010E7C
:10211000D880EE54000EED5405E20C0EDB060D0ED9
:1021200001E2DB06F2D0140EDB5008084DE10E0E82
:10213000DBCFE6FF0F0EDBCFE6FFEF0E146E4D0E8A
:10214000156E166A14C0E6FF15C0E6FF16C0E6FF5E
:10215000D950150FE66E000EDA20E66E4EEC25F033
:10216000176E070EE15E1750D950150FE66E000E80
:10217000DA20E66EA2EC19F0E552E55283B011D0F8
:102180000E0EDBCF14F00F0EDBCF15F0010E145C3A
:10219000000E155805E20E0EDB2A0F0E01E3DB2AB6
:1021A00012D083B410D0D9500E0FE96EDACFEAFF07
:1021B000000ED880EE54000EED5405E20E0EDB0644
:1021C0000F0E01E2DB06A1D0140EDB5009084DE131
:1021D000100EDBCFE6FF110EDBCFE6FFEF0E146E25
:1021E0004D0E156E166A14C0E6FF15C0E6FF16C048
:1021F000E6FFD950150FE66E000EDA20E66E4EECC3
:1022000025F0176E070EE15E1750D950150FE66ED8
:10221000000EDA20E66EA2EC19F0E552E55283B02A
:1022200011D0100EDBCF14F0110EDBCF15F0010E24
:10223000145C000E155805E2100EDB2A110E01E3A6
:10224000DB2A12D083B410D0D950100FE96EDACF48
:10225000EAFF000ED880EE54000EED5405E2100E99
:10226000DB06110E01E2DB0650D0140EDB500A082B
:102270004CE1120EDBCFE6FF130EDBCFE6FFEF0ED5
:10228000146E4D0E156E166A14C0E6FF15C0E6FFFB
:1022900016C0E6FFD950150FE66E000EDA20E66E86
:1022A0004EEC25F0176E070EE15E1750D950150F52
:1022B000E66E000EDA20E66EA2EC19F0E552E55269
:1022C00083B011D0120EDBCF14F0130EDBCF15F05C
:1022D000010E145C000E155805E2120EDB2A130ED7
:1022E00001E3DB2A12D083B410D0D950120FE96E6B
:1022F000DACFEAFF000ED880EE54000EED5405E26E
:10230000120EDB06130E01E2DB06200EE66E4E0E09
:10231000E66EE66AE66A8BEC18F0E552E552E552A5
:10232000E55283B266D0FD0EDBCFE9FFFE0EDBCFB8
:10233000EAFFDFCFEFFFFB0EDBCFE9FFFC0EDBCFC9
:10234000EAFF020EDBCFEEFF030EDBCFEDFFF90E4F
:10235000DBCFE9FFFA0EDBCFEAFF040EDBCFEEFFA7
:10236000050EDBCFEDFFF70EDBCFE9FFF80EDBCF7D
:10237000EAFF060EDBCFEEFF070EDBCFEDFFF50E1B
:10238000DBCFE9FFF60EDBCFEAFF080EDBCFEEFF77
:10239000090EDBCFEDFFF30EDBCFE9FFF40EDBCF51
:1023A000EAFF0A0EDBCFEFFFF10EDBCFE9FFF20E03
:1023B000DBCFEAFF0C0EDBCFEFFFEF0EDBCFE9FF49
:1023C000F00EDBCFEAFF0E0EDBCFEFFFED0EDBCF23
:1023D000E9FFEE0EDBCFEAFF100EDBCFEFFFEB0ED7
:1023E000DBCFE9FFEC0EDBCFEAFF120EDBCFEFFF16
:1023F00077D045D4200EE66E4E0EE66EE66AE66AAB
:102400008BEC18F0E552E552E552E55283B266D006
:10241000FD0EDBCFE9FFFE0EDBCFEAFFDFCFEFFFE4
:10242000FB0EDBCFE9FFFC0EDBCFEAFF020EDBCFBA
:10243000EEFF030EDBCFEDFFF90EDBCFE9FFFA0E67
:10244000DBCFEAFF040EDBCFEEFF050EDBCFEDFFA7
:10245000F70EDBCFE9FFF80EDBCFEAFF060EDBCF8E
:10246000EEFF070EDBCFEDFFF50EDBCFE9FFF60E3B
:10247000DBCFEAFF080EDBCFEEFF090EDBCFEDFF6F
:10248000F30EDBCFE9FFF40EDBCFEAFF0A0EDBCF62
:10249000EFFFF10EDBCFE9FFF20EDBCFEAFF0C0E10
:1024A000DBCFEFFFEF0EDBCFE9FFF00EDBCFEAFF74
:1024B0000E0EDBCFEFFFED0EDBCFE9FFEE0EDBCF35
:1024C000EAFF100EDBCFEFFFEB0EDBCFE9FFEC0EE8
:1024D000DBCFEAFF120EDBCFEFFF02D0A0EF0CF054
:1024E0001C0EE15C02E2E16AE552E16EE552E7CFE3
:0424F000D9FF1200FE
:0C24F400B6EC17F0FB0EDBCFF3FFDB06AD
:10250000F35000090AE004EC18F0FA0E6FEC18F032
:10251000F3E1151CF1E1010E01D0000EE5EF17F01B
:10252000B6EC17F03B0EE12402E3E168E652E16EFF
:10253000010EDB6A020EDB6AF90EDBCFF6FFFA0E44
:10254000DBCFF7FFFB0EDBCFF8FF0800F550DF6EA7
:10255000DF5002E109EF17F0250EDF5C02E0FCEF2F
:1025600016F0030EDB6A040EDB6A050EDB6A060E4C
:10257000DB6A070EDB6A1EEC17F02D0EDF5C0CE049
:102580002B0EDF5C09E0200EDF5C06E0230EDF5C33
:1025900003E0300EDF5C1AE1DF50300A14E0130A6A
:1025A0000FE0030A0AE00B0A05E0060AE4E1030E65
:1025B000DB80E1D7030EDB82DED7030EDB84DBD7C3
:1025C000030EDB86D8D7030EDB88D5D72A0EDF5C57
:1025D0001BE11AEC17F068EC17F010E0030EDB803B
:1025E00008680968130EDBCF0DF0140EDBCF0EF078
:1025F00003EC25F0040E06C0DBFF03D0130E51ECF4
:1026000017F01EEC17F00BD0090EDB6ABFEC17F0C9
:1026100003E033EC18F0FAD7090E51EC17F0030E73
:10262000DBB0DB982E0EDF5C1BE11EEC17F02A0EF0
:10263000DF5C0BE11AEC17F068EC17F003E1130E06
:10264000A3EC17F01EEC17F00BD0090EDB6ABFEC01
:1026500017F003E033EC18F0FAD7090EA3EC17F0EB
:10266000680EDF5C07E11EEC17F0680EDF5C1DE111
:10267000030E18D0740EDF5C17E07A0EDF5C14E0F6
:10268000480EDF5C06E0540EDF5C03E05A0EDF5CB0
:1026900002E1020E07D06C0EDF5C03E06A0EDF5C25
:1026A00004E1010EF6EC17F0C9DBDF506E0A01E120
:1026B0007FD31E0A01E192D1200A01E18FD13F0AA6
:1026C00001E149D11A0A01E146D10D0A01E143D1E4
:1026D000200A01E140D13A0A01E13DD1200A01E19D
:1026E0003AD1260A01E135D10D0A01E132D11A0AA7
:1026F00001E1D9D0200A4AE0300A1FE0460A0EE084
:10270000250A01E083D3D950F90FE96EFF0EDA20D4
:10271000EA6E010EEE5E000EEE5AEE5A04EC18F070
:10272000250EE66E95DB03E1151C01E169D300EC93
:1027300018F001E26BD3DB2A69D3080EDB6A040EC2
:10274000DB50010806E2040EDB04C8EC17F0DB5096
:102750008BDB080EDB5009E0030EDB50010B05E1BB
:1027600072DB01E04DD3080EDB6A64DBEFCFDFFFE5
:1027700078EC18F003E1151C01E142D300EC18F0ED
:1027800001E3DB2A60DB01E141D33AD3070EDB50E2
:1027900002080FE144EC18F0030E0BEC18F00E0EDB
:1027A000EECFDBFF0F0EEECFDBFF100EEECFDBFF29
:1027B00020D0F70EDBCF17F0F80EDBCF18F0020EAB
:1027C000175E000E185AF70E17C0DBFFF80E18C080
:1027D000DBFF17C0E9FF18C0EAFFFBEC17F0166A31
:1027E0000E0E14C0DBFF0F0E15C0DBFF100E16C05F
:1027F000DBFF0E0EDBCFE6FF0F0EDBCFE6FF100E8A
:10280000DBCFE6FF2EEC27F0E552E552E552130E42
:1028100007C0DBFF140E08C0DBFF060EDB5005E02F
:10282000130E3FEC18F001E26ADB63EC18F002E2F1
:10283000130E37DB26EC18F006E0040E3FEC18F020
:1028400002E2050E2EDB030EDBB005D0FCDA01E060
:10285000D7D2080EDB6A090EDB6A0E0EDBCFF6FF5D
:102860000F0EDBCFF7FF100EDBCFF8FF0800F5509F
:10287000DF6EDF5014E069EC18F011E278EC18F02C
:1028800003E1151C01E1BCD2BBDB01E3DB2A090E2D
:10289000DB2AD9500E0FE96E000ECBDBE7D7D3DA77
:1028A00001E1B4D2ADD2C6DA110EEECFDBFF120ECB
:1028B000EDCFDBFF110EDBCFE6FF120EDBCFE6FF25
:1028C00020EC27F0E552E552130EF3CFDBFF140E98
:1028D000F4CFDBFF060EDB5004E0130ED0DB01E289
:1028E0000EDB63EC18F002E2130EDBDAAFDB05E07F
:1028F000040EC5DB02E2050ED4DA030EDBB005D010
:10290000A2DA01E07DD2080EDB6A090EDB6A110E45
:10291000DBCFE9FF120EDBCFEAFFEFCFDFFFDF50A7
:1029200014E0D7DB12E2E4DB03E1151C01E168D21D
:1029300067DB01E3DB2A090EDB2A110EDB2ADBCF82
:10294000E9FF120EE8E3DB2AE6D77DDA01E15ED289
:1029500057D2030EDB8E070EDB0410E195DB040E6D
:102960005ADB0A0EEECFDBFF0B0EEECFDBFF0C0EB9
:10297000EECFDBFF0D0EEECFDBFF6CD0070EDB5092
:1029800003082CE1030EDBAE0DD0B2DA020E76DACC
:10299000EFCF14F0156A166A176A14AE39D01568AD
:1029A000166835D0F70EDBCF15F0F80EDBCF16F03A
:1029B000020E155E000E165AF70E15C0DBFFF80E5C
:1029C00016C0DBFF15C0E9FF16C0EAFFEFCF14F019
:1029D0000A0E14C0DBFF0B0EDB6A38D0070EDB508B
:1029E000020809E1030EDBAE04D059DB16AE10D0AD
:1029F0000ED055DB0DD0030EDBAE12D079DA020E0D
:102A00003DDAF9DA166A176A15AE02D01668176849
:102A1000E2DA0C0E16C0DBFF0D0E17C0DBFF1AD07A
:102A2000F70EDBCF16F0F80EDBCF17F0020E165EB6
:102A3000000E175AF70E16C0DBFFF80E17C0DBFFAB
:102A400016C0E9FF17C0EAFFD6DAC5DA0C0EDB6A5A
:102A50000D0EDB6A060EDB5005E1010EF36E050E6E
:102A6000F3CFDBFF150EDB6A160EDB6AD950370F8A
:102A7000146E000EDA20156E390E14C0DBFF3A0E0C
:102A800015C0DBFF380EDB6A080EDB6A0A0EAEDA11
:102A9000DF50780A12E0200A10E0280A0CE0200A31
:102AA0000AE03F0A06E00D0A02E0200A08E1020EF1
:102AB00005D0080E03D0080EDF26100E97DA030E9D
:102AC000DBBE02D0DB92DB94DB50800B24E08ADAA1
:102AD000D890030EEB50000A08E6000EEE5C000EE4
:102AE000EE58000EEE58000EEE5815E213DA0B68A1
:102AF0000C680D680E68B2EC26F00A0E02C0DBFF0F
:102B00000B0E03C0DBFF0C0E04C0DBFF0D0E05C077
:102B1000DBFF2D0E08D0030EDBA202D02B0E03D05C
:102B2000DBA408D0200EF36E170EF3CFDBFF150EDB
:102B3000DB2A02D0170EDB6A050EDB5003E1B7D9A2
:102B400001E189D00E0E146E500E156E000E166E39
:102B5000070EDBCF17F0186A196A1A6A17C00BF054
:102B600018C00CF019C00DF01AC00EF0D3D981ECCA
:102B700027F014500224F36E15500320F46E165003
:102B80000420F86EF4CFF7FFF3CFF6FF0800090E2C
:102B9000F5CFDBFF580EDF5C0FE1610EF36E090E1F
:102BA0007BD90AE3200E146E090EDBCFE7FF145029
:102BB000E75E090EE7CFDBFF070EDBCF14F0156AE7
:102BC000166A176A0FDA14C00BF015C00CF016C0A5
:102BD0000DF017C00EF0EECF06F0EECF07F0EECFFF
:102BE00008F0EFCF09F081EC27F009C0EDFF08C035
:102BF000EDFF07C0EDFF06C0EFFF390EDBCFE9FFA9
:102C0000DB063A0EDBCFEAFF01E2DB06090EDBCF83
:102C1000EFFF150EDB2A4BD995E1030EDBA61DD085
:102C20006F0EDF5C06E1C1D918E3150EDB285BDA15
:102C300014D0780EDF5C09E0580EDF5C06E0620E0F
:102C4000DF5C03E0420EDF5C08E1020EF36E160E5D
:102C5000F3CFDBFF02D0150EDB6A030EDB50100B47
:102C60000EE0040EDBCF14F0050EDB50D8801454B8
:102C700006E2060EDB5003E1040EDB5034DA95D990
:102C80000AE2050EDBCFE7FF150EDB50E75E050E0F
:102C9000E7CFDBFF02D0050EDB6A040EDBCF14F0BA
:102CA000160E45D9D880145414E2160EDBCFE6FF79
:102CB000150EDBCFE6FF040EDBCFE6FF050EDB5083
:102CC000E552E75CE552D880E754E552D880E754F6
:102CD0005FD9030EDB50010B0BE1080EDB5008E05F
:102CE000B2D801E08DD0080EDB50BED8080EDB6AEA
:102CF000170EDB5007E088D9170EF1D903E1151C38
:102D000001E17ED0160EDB5016E07ED9300EE66E65
:102D10009FD802E1151C74E077D9DFCFE6FFF3EC12
:102D200025F0E552E552E552F4CF15F00001F31C11
:102D300002E1151C65E0050EDBCF14F0160EDB502A
:102D4000D880145409E2050EDBCFE7FF160EDB50E6
:102D5000E75E050EE7CFDBFF300EE66E050ECBD942
:102D60004FE1390EDB2ADBCFE9FF3A0E01E3DB2A24
:102D7000DBCFEAFF090EEFCFDBFFDB500EE044D9DB
:102D8000090EADD902E1151C3BE0390EDB2ADBCF81
:102D9000E9FF3A0EEDE3DB2AEBD755D831E1160E09
:102DA000DBCFE6FF080EC3D8E552E7245DD82ED06E
:102DB000070EDB50030A1CE0010A14E0030A07E0D7
:102DC0007BD9DBCFEEFF020EDBCFEDFF1FD0F5D8B6
:102DD000196A17AE02D0186819682CD8BCD819C067
:102DE000EEFF14D0EAD817BE186824D8B4D80ED095
:102DF00063D9DBCFEFFF0AD07BD905E1151C03E1D6
:102E0000F368F46810D0FCD801E3DB2A79D9A5EF88
:102E100012F0010EDBCF14F0020EDBCF15F014C060
:102E2000F3FF15C0F4FF3B0EE15C02E2E16AE552FC
:102E3000E16ECBD029D9020E0BEF18F061D9080052
:102E4000F550DF6E1200200EE66E080E7BEF18F0D4
:102E5000F3EC25F0E552E552E552F3CF14F0F4CF50
:102E600015F00001F31C1200146E156AD950010F01
:102E70004DD91450EE261550ED221200185E000EAA
:102E8000195AF70E18C0DBFFF80E19C0DBFF18C087
:102E9000E9FF19C0EAFF1200DBCFF4FFF350F45C46
:102EA0001200DB50E76E040EE7CFDBFF12000A0EC4
:102EB000DBCF14F00B0EDBCF15F00C0EDBCF16F0D2
:102EC0000D0EDBCF17F0145015101610171012004E
:102ED000130EEECFDBFF140EEDCFDBFF130EDBCFB7
:102EE00014F0140EDBCF15F00001800E1514120043
:102EF000F70EDBCF18F0F80EDBCF19F01200050E3D
:102F0000DB50E66ED950130F01D9E552E750EE6E53
:102F1000ED6A12000A0EDBCF06F00B0EDBCF07F0D6
:102F20000C0EDBCF08F00D0EDBCF09F01200DBCF6B
:102F3000E6FF150EDBCFE6FF050EDB50E552E7247A
:102F4000E552E7241200DB50CED8010EF36E060ED8
:102F5000F3CFDBFF1200EE50EFCFEAFFE96E16C0B1
:102F6000EEFF17C0EEFF18C0EEFF1200D9CFE6FF4C
:102F7000DACFE6FFE1CFD9FFE2CFDAFF1200DFCFF1
:102F8000E6FFE66ABBEC27F0E552E552F35012008B
:102F9000E76E080EE7CFDBFF1200EECF14F0EECFA6
:102FA00015F0EFCF16F0176A1200050EDBCF14F004
:102FB000150EDB50D88014541200010EDBCF16F032
:102FC000020EDBCF17F0186A1200E552E5CFDAFFE8
:102FD000E7CFD9FF12000A0E14C0DBFF0B0E15C09D
:102FE000DBFF1200D9500A0F86EF18F0F36E070EC0
:102FF000F3CFDBFF1200EECF14F0EFCF15F012008D
:10300000010EDB2A020E1200FC0EDBCFE6FFFD0EE6
:10301000DBCFE6FF1200145E000E155AF70E14C047
:10302000DBFFF80E15C0DBFF14C0E9FF15C0EAFF97
:103030001200DA20EA6EEF2AEECFF6FF000EEF2242
:10304000EECFF7FFEF22EECFF8FF1200040EDBCF3A
:10305000E6FF130EDB50E552E75C9ADFDB5004DF3E
:10306000060EDB501200090EDB500A0DF350DF2470
:10307000D00FE76E090EE7CFDBFF1EEF17F0DB5036
:10308000F36E050E4CEF17F0F70EDBCF14F0F80ED1
:10309000DBCF15F01200DFCFE6FF28EF17F028DFB7
:1030A000030EECDECDEF17F07AEC12F0E552E552AC
:1030B000E552E55200091200BDDEEE50EFCFEAFF07
:1030C000E96E010E1200130EDB50F36E040E4CEF8E
:1030D00017F0040EDB50F36E090E4CEF17F0DBCF48
:1030E000E6FF28EF17F0E76E050EE7CFDBFF1200D3
:1030F0008BDF4BEF18F0DBCFE6FF86DF54EF18F0E5
:10310000D950F90FE96EFF0E19EF18F0E96E000EB5
:06311000DA20EA6E120055
:0A311600D9CFE6FFE1CFD9FF040E88
:10312000E126DE6ADE6ADE6ADD6ADD52DD52FB0E12
:10313000DBCF14F0FC0EDBCF15F0FD0EDBCF16F06D
:10314000FE0EDBCF17F0D89014361536163617362C
:10315000D9CFE9FFDACFEAFF030EEBCFF3FF175029
:10316000F318E8AE02D0F33408D0EE50145CEE5001
:103170001558EE501658EE5017580AE3D9CFE9FF0C
:10318000DACFEAFFEE2A000EEE22EE22EE22CFD7B1
:10319000040EE15C02E2E16AE552E16EE552E7CF3E
:1031A000D9FF1200D9CFE6FFE1CFD9FFE652DF6A9F
:1031B000FE0EDB50480803E1370EDF6EBCD0FE0E7A
:1031C000DB50490803E1300EDF6EB5D0FE0EDB5058
:1031D000430803E14E0EDF6EAED0FE0EDB504E080C
:1031E00003E1150EDF6EA7D0FE0EDB50440803E1AD
:1031F0003D0EDF6EA0D0FE0EDB50530803E15B0EE8
:10320000DF6E99D0FE0EDB504C0803E10E0EDF6E30
:1032100092D0FE0EDB50500803E1670EDF6E8BD0BC
:10322000FE0EDB50550803E11C0EDF6E84D0FE0E4F
:10323000DB50410803E1770EDF6E7DD0FE0EDB50E0
:10324000460803E1470EDF6E76D0FE0EDB505908CC
:1032500003E13B0EDF6E6FD0FE0EDB50450803E14D
:103260004F0EDF6E68D0FE0EDB502D0803E1010E1D
:10327000DF6E61D0FE0EDB50520803E1050EDF6EFB
:103280005AD0FE0EDB50540803E10F0EDF6E53D010
:10329000FE0EDB504F0803E17E0EDF6E4CD0FE0EBB
:1032A000DB50560803E13E0EDF6E45D0FE0EDB50CC
:1032B000300803E17E0EDF6E3ED0FE0EDB5031089B
:1032C00003E1300EDF6E37D0FE0EDB50320803E133
:1032D0006D0EDF6E30D0FE0EDB50330803E1790E49
:1032E000DF6E29D0FE0EDB50340803E1330EDF6EB3
:1032F00022D0FE0EDB50350803E15B0EDF6E1BD0E3
:10330000FE0EDB50360803E15F0EDF6E14D0FE0EBA
:10331000DB50370803E1700EDF6E0DD0FE0EDB5080
:10332000380803E17F0EDF6E06D0FE0EDB50390851
:1033300002E17B0EDF6EDF5000D0E552E552E7CFB1
:10334000D9FF1200D9CFE6FFE1CFD9FF090EE12660
:10335000DE52050EDD6E030EDB6ADBCF14F0050EC8
:10336000E76E1418E8AE02D0E73402D0E750145CE0
:1033700028E2FD0EDBCFE9FFFE0EDBCFEAFFEF50C8
:10338000E66ED950040F146EDACF15F0030EDBCFC2
:1033900016F0176A16BE176814501624E96E1550F9
:1033A0001720EA6EE552E750EF6EFD0EDBCFE9FF26
:1033B000DB2AFE0EDBCFEAFF01E3DB2A030EDB2A6A
:1033C000CCD7030EDB6AD950040F146EDACF15F098
:1033D000030EDBCF16F0176A16BE176814501624BA
:1033E000E96E15501720EA6EEF5003E0030EDB2A5A
:1033F000EAD7E66A090EE66E4DD8E552E552DF6A75
:10340000DFCF14F0050EE76E1418E8AE02D0E734F3
:1034100002D0E750145C34E2DFCF14F0030EDB502F
:10342000E76E1418E8AE02D0E73402D0E750145C1F
:1034300019E2D950040F146EDACF15F0DFCF16F071
:10344000176A16BE176814501624E96E1550172017
:10345000EA6EEF50E66EA6DEE552E76E020EE7CFAB
:10346000DBFF02D0020EDB6ADBCFE6FF010EDBCF13
:10347000E6FF10D8E552E552010EDB06DF2AC0D781
:10348000090EE15C02E2E16AE552E16EE552E7CF46
:10349000D9FF1200D9CFE6FFE1CFD9FF030EE12615
:1034A00082860A0EE66EE66AE66AE66A34DEE5526F
:1034B000E552E552E552829C0A0EE66EE66AE66A3D
:1034C000E66A29DEE552E552E552E552829A0A0E95
:1034D000E66EE66AE66AE66A1EDEE552E552E55207
:1034E000E5520F0EDF6EDFCF14F0143401E3EDD0A0
:1034F000DFCF14F00C0EE76E1418E8AE02D0E734FC
:1035000002D0E750145C17E3828C0A0EE66EE66A7E
:10351000E66AE66A00DEE552E552E552E552829C33
:103520000A0EE66EE66AE66AE66AF5DDE552E552FF
:10353000E552E552C8D0DFCF14F0080EE76E14183C
:10354000E8AE02D0E73402D0E750145C5FE3DFCF8F
:1035500015F00B0EE76E1518E8AE02D0153403D047
:10356000E750D880155452E3FE0EDBCF16F0176AF1
:1035700016BE176816C0E6FF17C0E6FF080EDF5C30
:10358000E66ECED8E552E552E7CF17F0E552E7CF29
:1035900016F01650F314146E1750F414156E010E35
:1035A00014C0DBFF020E15C0DBFF010EDBCF14F0F1
:1035B000020EDBCF15F0153404E214500008000EA3
:1035C000155402E2828A01D0829A0A0EE66EE66AF9
:1035D000E66AE66AA0DDE552E552E552E552828CE4
:1035E0000A0EE66EE66AE66AE66A95DDE552E5529F
:1035F000E552E552829C0A0EE66EE66AE66AE66AE3
:103600008ADDE552E552E552E5525DD0DFCF14F098
:10361000070EE76E1418E8AE02D0143403D0E7505A
:10362000D880145450E3FD0EDBCF16F0176A16BE97
:10363000176816C0E6FF17C0E6FFDFCFE6FF70D8B9
:10364000E552E552E7CF17F0E552E7CF16F01650F6
:10365000F314146E1750F414156E010E14C0DBFF32
:10366000020E15C0DBFF0A0EE66EE66AE66AE66A3F
:1036700052DDE552E552E552E552010EDBCF14F082
:10368000020EDBCF15F0153404E214500008000ED2
:10369000155402E2828A01D0829A0A0EE66EE66A28
:1036A000E66AE66A38DDE552E552E552E552828C7B
:1036B0000A0EE66EE66AE66AE66A2DDDE552E55236
:1036C000E552E552829CDF060ED782960A0EE66E20
:1036D000E66AE66AE66A1FDDE552E552E552E55222
:1036E00082860A0EE66EE66AE66AE66A14DDE5524E
:1036F000E552E552E552828C0A0EE66EE66AE66A0B
:10370000E66A09DDE552E552E552E552030EE15C59
:1037100002E2E16AE552E16EE552E7CFD9FF12001D
:10372000D9CFE6FFE1CFD9FF030EE126010EF36EFC
:10373000F3CFDBFF020EDB6A010EDF6EDFCF14F08A
:10374000FE0EDB50E76E1418E8AE02D0143403D03E
:10375000E750D880145413E3020E086E096A010E74
:10376000DBCF0DF0020EDBCF0EF003EC25F0DE52C6
:1037700006C0DEFF07C0DDFFDD52DF2ADFD7010E06
:10378000DBCF14F0020EDBCF15F014C0F3FF15C031
:10379000F4FF030EE15C03E200D0E16AE552E16E62
:0837A000E552E7CFD9FF12004A
:0837A800839E640EE66EE66AE2
:1037B000E66AE66A8BEC18F0E552E552E552E5520E
:1037C0008090640EE66EE66AE66AE66A8BEC18F0B4
:1037D000E552E552E552E5528092640EE66EE66AE5
:1037E000E66AE66A8BEC18F0E552E552E552E552DE
:1037F0001200D9CFE6FFE1CFD9FF090EE126DF6A3B
:10380000040EDF5C22E2FD0EDBCFE9FFFE0EDBCF14
:10381000EAFFEF50E66ED950010F146EDACF15F0C3
:10382000DF500F011424E96E000E1520EA6EE552F8
:10383000E750EF6EFD0EDBCFE9FFDB2AFE0EDBCF9C
:10384000EAFF01E3DB2ADF2ADBD7FB0EDBCFE9FF50
:10385000FC0EDBCFEAFF070EEECFDBFF080EEDCF4D
:10386000DBFFD950FB0FE96EFF0EDA20EA6EEECFD8
:10387000F3FFEDCFF4FF020EEE26000EEF22F3CFA2
:10388000E9FFF4CFEAFFFB0EDBCFE9FFFC0EDBCF55
:10389000EAFF050EEECFDBFF060EEDCFDBFFD950C2
:1038A000FB0FE96EFF0EDA20EA6EEECFF3FFEDCFED
:1038B000F4FF020EEE5E000EEF5AF3CFE9FFF4CFF5
:1038C000EAFF010EDB5021E1020EDB5051081DE141
:1038D000030EDB50080819E1040EDB5016E1010E5F
:1038E000F36E050EF3CFDBFF060EDB6AF80EDBCFBF
:1038F000E6FFF90EDBCFE6FFCBEC21F0E552E55217
:10390000070EDB6A080EDB6A2AD2010EDB5021E1CA
:10391000020EDB502D081DE1030EDB50040819E1F7
:10392000040EDB5016E1020EF36E050EF3CFDBFF43
:10393000060EDB6AF80EDBCFE6FFF90EDBCFE6FF03
:10394000CBEC21F0E552E552070EDB6A080EDB6A8C
:1039500006D2010EDB5021E1020EDB5015081DE1FD
:10396000030EDB50020819E1040EDB5016E1030ED2
:10397000F36E050EF3CFDBFF060EDB6AF80EDBCF2E
:10398000E6FFF90EDBCFE6FFCBEC21F0E552E55286
:10399000070EDB6A080EDB6AE2D1010EDB5020E184
:1039A000020EDB500F081CE1030EDB0419E1040ECC
:1039B000DB5016E1040EF36E050EF3CFDBFF060EAF
:1039C000DB6AF80EDBCFE6FFF90EDBCFE6FF25EC76
:1039D00022F0E552E552070EDB6A080EDB6ABFD122
:1039E000010EDB5033E1020EDB5009082FE1030E1C
:1039F000DB502CE1040EDB50800828E1050EF36E4D
:103A0000F3CFDBFF060EDB6A050EF36EFA0EDBCF9B
:103A1000F4FFF350F45C0BE3F80EDBCFE6FFF90E96
:103A2000DBCFE6FF83EC22F0E552E5520AD0F80E38
:103A3000DBCFE6FFF90EDBCFE6FF25EC22F0E55207
:103A4000E552070EDB6A080EDB6A89D1010EDB50F6
:103A500034E1020EDB50030830E1030EDB502DE1B0
:103A6000040EDB50400829E1060EF36E050EF3CF7D
:103A7000DBFF060EDB6A020EF36EFA0EDBCFF4FFFD
:103A8000F350F45C0BE3F80EDBCFE6FFF90EDBCF6F
:103A9000E6FF83EC22F0E552E5520AD0F80EDBCFC8
:103AA000E6FFF90EDBCFE6FF25EC22F0E552E5520A
:103AB000070EDB6A080EDB6A52D1010EDB50FF08ED
:103AC00034E1020EDB50FD0830E1030EDB502DE146
:103AD000040EDB50200829E1070EF36E050EF3CF2C
:103AE000DBFF060EDB6A030EF36EFA0EDBCFF4FF8C
:103AF000F350F45C0BE3F80EDBCFE6FFF90EDBCFFF
:103B0000E6FF83EC22F0E552E5520AD0F80EDBCF57
:103B1000E6FFF90EDBCFE6FFEEEC22F0E552E552D0
:103B2000070EDB6A080EDB6A1AD1010EDB50FF08B4
:103B300034E1020EDB50F70830E1030EDB502DE1DB
:103B4000040EDB50100829E1080EF36E050EF3CFCA
:103B5000DBFF060EDB6A040EF36EFA0EDBCFF4FF1A
:103B6000F350F45C0BE3F80EDBCFE6FFF90EDBCF8E
:103B7000E6FF83EC22F0E552E5520AD0F80EDBCFE7
:103B8000E6FFF90EDBCFE6FFEEEC22F0E552E55260
:103B9000070EDB6A080EDB6AE2D0010EDB50FF087D
:103BA00021E1020EDB50F1081DE1030EDB501AE1AA
:103BB000040EDB50080816E1090EF36E050EF3CF74
:103BC000DBFF060EDB6AF80EDBCFE6FFF90EDBCF7C
:103BD000E6FFEEEC22F0E552E552070EDB6A080E36
:103BE000DB6ABDD0010EDB50FF0821E1020EDB5085
:103BF000EB081DE1030EDB501AE1040EDB50040854
:103C000016E10A0EF36E050EF3CFDBFF060EDB6A3C
:103C1000F80EDBCFE6FFF90EDBCFE6FF4CEC23F02E
:103C2000E552E552070EDB6A080EDB6A98D0010EFA
:103C3000DB50FF0821E1020EDB50D3081DE1030E2B
:103C4000DB501AE1040EDB50020816E10B0EF36E96
:103C5000050EF3CFDBFF060EDB6AF80EDBCFE6FFC7
:103C6000F90EDBCFE6FF4CEC23F0E552E552070EF0
:103C7000DB6A080EDB6A73D0010EDB50FF0820E11F
:103C8000020EDB50AF081CE1030EDB5019E1040EFD
:103C9000DB0416E10C0EF36E050EF3CFDBFF060E10
:103CA000DB6AF80EDBCFE6FFF90EDBCFE6FF4CEC6C
:103CB00023F0E552E552070EDB6A080EDB6A4FD0AF
:103CC000D950070FE96EDACFEAFF410ED880EE54E3
:103CD000000EED540FE268DD0D0EF36E050EF3CF0E
:103CE000DBFF060EDB6A070EDB6A080EDB6AA7EC59
:103CF00023F035D0D950070FE96EDACFEAFF410E35
:103D0000D880EE54000EED542AE3070EDB2A080E8D
:103D100001E3DB2AD59E839E0A0EE66EE66AE66A1A
:103D2000E66A8BEC18F0E552E552E552E5528090D8
:103D30000A0EE66EE66AE66AE66A8BEC18F0E55271
:103D4000E552E552E55280920A0EE66EE66AE66AB0
:103D5000E66A8BEC18F0E552E552E552E552FB0EAF
:103D6000DBCFE9FFFC0EDBCFEAFF070EDBCFEEFF78
:103D7000080EDBCFEDFFD950FB0FE96EFF0EDA2006
:103D8000EA6EEECFF3FFEDCFF4FF020EEE26000E4B
:103D9000EF22F3CFE9FFF4CFEAFFFB0EDBCFE9FF21
:103DA000FC0EDBCFEAFF050EDBCFEEFF060EDBCF0E
:103DB000EDFFD950FB0FE96EFF0EDA20EA6EEECF71
:103DC000F3FFEDCFF4FF020EEE5E000EEF5AF3CFDD
:103DD000E9FFF4CFEAFFE8DC090EE15C02E2E16A08
:0C3DE000E552E16EE552E7CFD9FF12007A
:043DEC00D9CFE6FF46
:103DF000E1CFD9FFE652DF6ADFCF14F0020EE76EA3
:103E00001418E8AE02D0143403D0E750D88014540C
:103E100002E3DF2AF1D7E552E552E7CFD9FF1200DE
:103E2000838CE4DF808AF6EF1EF0808ADFDF839CDC
:103E3000DDDF809AF6EF1EF0809AD8DF838CD6DF24
:103E4000808AD4DF839CF6EF1EF0809ACFDF839CBC
:103E5000CDDF808ACBDF838CF6EF1EF07F0E956E70
:103E6000839CC4DF808AC2DF809AC0DF838CBEDF80
:103E70003F0E956E1200838CB9DF808AB7DF809A7F
:103E8000F6EF1EF0D9CFE6FFE1CFD9FFE652DF6AA9
:103E9000080EDF5C14E2809AA9DFFE0EDBBE02D0C2
:103EA000839C01D0838CA2DF808AA0DFFE0EDBCF53
:103EB000F3FFF39EF346F3CFDBFFDF2AE9D7809AC7
:103EC00095DF838C93DFE552E552E7CFD9FF1200EF
:103ED000D9CFE6FFE1CFD9FFE6520E01396B3A6B3D
:103EE0007F0E956EDF6A040EDF5C11E2809A7EDF42
:103EF000808A7CDF83AC03D00E013929396F030E31
:103F0000DF5C03E20E01399F3947DF2AECD7040E4C
:103F1000DF6E080EDF5C11E2809A68DF808A66DF60
:103F200083AC03D00E013A293A6F070EDF5C03E23F
:103F30000E013A9F3A47DF2AECD7809A57DF3F0EAF
:103F4000956E838C53DF0A0E0E013903F3503A2528
:103F5000396F395100D0E552E552E7CFD9FF120051
:103F60005FDF63DFD00EE66E8DDFE55277DFE66A56
:103F700089DFE55273DFE66A85DFE5526FDF65DFD3
:103F8000060EE66E37D8E552000933E1E66A010E07
:103F9000E66E52D8E552E552E66A020EE66E4CD85D
:103FA000E552E552010EE66E040EE66E45D8E55286
:103FB000E552040EE66E050EE66E3ED8E552E55279
:103FC0000C0EE66E060EE66E37D8E552E552E66A4E
:103FD000080EE66E31D8E552E552E66A090EE66E45
:103FE0002BD8E552E552E66A0A0EE66E25D8E55270
:103FF000E5521200D9CFE6FFE1CFD9FFE65215DF37
:10400000D00EE66E3FDFE55229DFFE0EDBCFE6FF86
:1040100039DFE55223DF10DFD10EE66E33DFE552E4
:104020001DDF56DFDF6E27DF10DFDF5000D0E552E7
:10403000E552E7CFD9FF1200D9CFE6FFE1CFD9FF94
:10404000E652F3DED00EE66E1DDFE55207DFFE0E10
:10405000DBCFE6FF17DFE55201DFFD0EDBCFE6FF2A
:1040600011DFE552FBDEF1DEE552E552E7CFD9FF85
:104070001200D9CFE6FFE1CFD9FF1A0EE126010EDB
:10408000E66EB8DFE552DE6EDD6A020EE66EB2DF86
:10409000E552E66ED950020FE96EDACFEAFFE5523B
:1040A000E750EE6EED6A040EE66EA4DFE552E66EB2
:1040B000D950040FE96EDACFEAFFE552E750EE6E11
:1040C000ED6A120EDB6A130EDB6A120EDBCF14F000
:1040D000130EDBCF15F0D890155004E6030E145CD8
:1040E000000E155872E2FD0EDBCFE9FFFE0EDBCFAE
:1040F000EAFFEECF16F0EFCF17F0D950060F146E8F
:10410000DACF15F0020E086E096A120EDBCF0DF041
:10411000130EDBCF0EF003EC25F014500624E96EED
:1041200015500720EA6E16C0EEFF17C0EDFFFB0E1C
:10413000DBCFE9FFFC0EDBCFEAFFEECF16F0EFCFCF
:1041400017F0D9500C0F146EDACF15F0020E086E6E
:10415000096A120EDBCF0DF0130EDBCF0EF003EC6D
:1041600025F014500624E96E15500720EA6E16C09B
:10417000EEFF17C0EDFFD950FD0FE96EFF0EDA20FC
:10418000EA6EEECFF3FFEDCFF4FF020EEE26000E47
:10419000EF22F3CFE9FFF4CFEAFFD950FB0FE96E2E
:1041A000FF0EDA20EA6EEECFF3FFEDCFF4FF020E42
:1041B000EE26000EEF22F3CFE9FFF4CFEAFF120E56
:1041C000DB2A130E01E3DB2A80D7DECF16F0DDCF2A
:1041D00017F0060EDB50165C146E070EDB501758F6
:1041E000156E140E14C0DBFF150E15C0DBFF140E88
:1041F000DBCF14F0150EDBCF15F00001800E151487
:1042000010E008680968140EDBCF0DF0150EDBCF47
:104210000EF003EC25F0140E06C0DBFF150E07C0F0
:10422000DBFF020EDBCF16F0030EDBCF17F0080E1C
:10423000DB50165C146E090EDB501758156E160E07
:1042400014C0DBFF170E15C0DBFF160EDBCF14F01A
:10425000170EDBCF15F00001800E151410E0086872
:104260000968160EDBCF0DF0170EDBCF0EF003EC56
:1042700025F0160E06C0DBFF170E07C0DBFF040E8D
:10428000DBCF16F0050EDBCF17F00A0EDB50165C05
:10429000146E0B0EDB501758156E180E14C0DBFF92
:1042A000190E15C0DBFF180EDBCF14F0190EDBCF93
:1042B00015F00001800E151410E008680968180E4A
:1042C000DBCF0DF0190EDBCF0EF003EC25F0180E4E
:1042D00006C0DBFF190E07C0DBFF140EDBCF16F0A4
:1042E000150EDBCF17F00C0EDB501624146E0D0EDE
:1042F000DB501720156E0C0E14C0DBFF0D0E15C021
:10430000DBFF160EDBCF16F0170EDBCF17F00E0E0D
:10431000DB501624146E0F0EDB501720156E0E0E98
:1043200014C0DBFF0F0E15C0DBFF180EDBCF16F03D
:10433000190EDBCF17F0100EDB501624146E110E81
:10434000DB501720156E100E14C0DBFF110E15C0C8
:10435000DBFF0C0EDBCFE6FF080EE66E6DDEE552EE
:10436000E5520E0EDBCFE6FF090EE66E65DEE55286
:10437000E552100EDBCFE6FF0A0EE66E5DDEE5527B
:10438000E5521A0EE15C02E2E16AE552E16EE552A5
:06439000E7CFD9FF120087
:0A439600D9CFE6FFE1CFD9FFE652D0
:1043A000FD0EDBCFE9FFFE0EDBCFEAFF030EEF6E63
:1043B000D58EE66ED5EC24F0E552DF6ADFCF14F03F
:1043C000020EE76E1418E8AE02D0143403D0E750A2
:1043D000D880145429E3F00EE66E070EE66E4AEC20
:1043E0001AF0E552E552A00EE66E0F0EE66EE66A92
:1043F000E66A8BEC18F0E552E552E552E552E66AC2
:10440000070EE66E4AEC1AF0E552E552A00EE66E93
:104410000F0EE66EE66AE66A8BEC18F0E552E5529E
:10442000E552E552DF2ACAD7200EE66E4E0EE66E42
:10443000E66AE66A8BEC18F0E552E552E552E55281
:10444000E552E552E7CFD9FF1200D9CFE6FFE1CF21
:10445000D9FFE652FD0EDBCFE9FFFE0EDBCFEAFF10
:10446000010EEF6ED58E0B0EE66ED5EC24F0E55204
:10447000DF6ADFCF14F0020EE76E1418E8AE02D048
:10448000143403D0E750D880145438E3F00EE66EAD
:10449000070EE66E4AEC1AF0E552E552F80EE66EAB
:1044A000080EE66E4AEC1AF0E552E552D00EE66EC2
:1044B000070EE66EE66AE66A8BEC18F0E552E55206
:1044C000E552E552E66A070EE66E4AEC1AF0E5524E
:1044D000E552E66A080EE66E4AEC1AF0E552E5523D
:1044E000D00EE66E070EE66EE66AE66A8BEC18F012
:1044F000E552E552E552E552DF2ABBD7E552E552D7
:10450000E7CFD9FF1200D9CFE6FFE1CFD9FFE652BE
:10451000D59E839E0A0EE66EE66AE66AE66A8BEC34
:1045200018F0E552E552E552E55280900A0EE66E2B
:10453000E66AE66AE66A8BEC18F0E552E552E55267
:10454000E55280920A0EE66EE66AE66AE66A8BEC4F
:1045500018F0E552E552E552E552040EE66ED5EC50
:1045600024F0E552DF6ADFCF14F0020EE76E141874
:10457000E8AE02D0143403D0E750D880145429E3B5
:10458000F80EE66E080EE66E4AEC1AF0E552E552B9
:10459000D00EE66E070EE66EE66AE66A8BEC18F061
:1045A000E552E552E552E552E66A080EE66E4AEC3F
:1045B0001AF0E552E552D00EE66E070EE66EE66A98
:1045C000E66A8BEC18F0E552E552E552E552DF2A37
:1045D000CAD7E552E552E7CFD9FF1200D9CFE6FF9F
:1045E000E1CFD9FFE652FD0EDBCFE9FFFE0EDBCFB8
:1045F000EAFF020EEF6ED58E0A0EE66ED5EC24F0C1
:10460000E552DF6ADFCF14F0020EE76E1418E8AE51
:1046100002D0143403D0E750D880145438E3F00E9D
:10462000E66E060EE66E4AEC1AF0E552E552F80E1A
:10463000E66E080EE66E4AEC1AF0E552E552D00E30
:10464000E66E070EE66EE66AE66A8BEC18F0E55257
:10465000E552E552E552E66A060EE66E4AEC1AF0BD
:10466000E552E552E66A080EE66E4AEC1AF0E552AB
:10467000E552D00EE66E070EE66EE66AE66A8BEC51
:1046800018F0E552E552E552E552DF2ABBD7E55274
:10469000E552E7CFD9FF1200D9CFE6FFE1CFD9FF2E
:1046A000E652FD0EDBCFE9FFFE0EDBCFEAFF040E84
:1046B000EF6ED58E050EE66ED5EC24F0E552DF6A7E
:1046C000DFCF14F0020EE76E1418E8AE02D01434F7
:1046D00003D0E750D880145429E3F00EE66E060E9E
:1046E000E66E4AEC1AF0E552E552A00EE66E0F0EA9
:1046F000E66EE66AE66A8BEC18F0E552E552E552A2
:10470000E552E66A060EE66E4AEC1AF0E552E5520C
:10471000A00EE66E0F0EE66EE66AE66A8BEC18F007
:10472000E552E552E552E552DF2ACAD7200EE66E81
:104730004E0EE66EE66AE66A8BEC18F0E552E5523C
:10474000E552E552E552E552E7CFD9FF1200D9CF45
:10475000E6FFE1CFD9FFE652D59E839E0A0EE66EB4
:10476000E66AE66AE66A8BEC18F0E552E552E55235
:10477000E55280900A0EE66EE66AE66AE66A8BEC1F
:1047800018F0E552E552E552E55280920A0EE66EC7
:10479000E66AE66AE66A8BEC18F0E552E552E55205
:1047A000E552E66AD5EC24F0E552010EDF6EDFCF6C
:1047B00014F0020EE76E1418E8AE02D0143403D0E1
:1047C000E750D880145447E3F00EE66E070EE66E0D
:1047D0004AEC1AF0E552E552100EE66E080EE66E4F
:1047E0004AEC1AF0E552E552F00EE66E060EE66E61
:1047F0004AEC1AF0E552E552300EE66E750EE66EA2
:10480000E66AE66A8BEC18F0E552E552E552E552AD
:10481000E66A070EE66E4AEC1AF0E552E552E66AE1
:10482000080EE66E4AEC1AF0E552E552E66A060E0C
:10483000E66E4AEC1AF0E552E552C00EE66E5D0EE9
:10484000E66EE66AE66A8BEC18F0E552E552E55250
:10485000E552DF2AACD7E552E552E7CFD9FF120087
:10486000800E6F6E6E50E00BE842E842E842E8428C
:10487000E842040801E0F6D7400E726E0E01870E82
:10488000436FB80E446F050E456FF80E7D6FFA6BDF
:10489000FB6BF869E00EF96F010E466F476BC00EB7
:1048A000796FF00E716F72697369746975697669F1
:1048B00077697869E26BE36B980EE06FE16B6F6A82
:1048C000606A1200D9CFE6FFE1CFD9FF0A0EE126D8
:1048D000DF6A60AE53D063CF34FE64CF35FE61CF64
:1048E00036FE62CF37FE65CF38FE010E66CFDBFFA6
:1048F000020E67CFDBFF030E68CFDBFF040E69CF2C
:10490000DBFF050E6ACFDBFF060E6BCFDBFF070E6A
:104910006CCFDBFF080E6DCFDBFF609E010EDF6EFC
:10492000090EDB6A040EF36E090EDBCFF4FFF350C1
:10493000F45C24E2D950010F146EDACF15F0090EA1
:10494000DB500F011424E96E000E1520EA6EEF50C3
:10495000E66EFD0EDBCFE9FFFE0EDBCFEAFFE55290
:10496000E750EF6EFD0EDBCFE9FFDB2AFE0EDBCF5B
:10497000EAFF01E3DB2A090EDB2AD4D771BE719E60
:10498000DF0405E1DF6A7792010E03D002D0000E4A
:1049900000D0146E0A0EE15C02E2E16AE552E16EBB
:1049A0001450E552E7CFD9FF1200D9CFE6FFE1CF8F
:1049B000D9FF0F01236B246B180E216F226B010EA0
:1049C000256FFE0EDBCF26FF2087E552E7CFD9FF0C
:0249D0001200D3
:0E49D200006A0EAEEFEF24F00E6C001E09AE70
:1049E000F4EF24F0096C001EF9EC27F009BEFEEF8D
:1049F00024F000AE000C096C056C000C00BEFBEF4F
:104A000024F00188FF0C09C013F008C012F0085010
:104A10000D02F4CF07F0F3CF06F009500E02F4CFE9
:104A200009F0F3CF08F00D02F3500726F4500822E6
:104A3000E86A092212500E02F3500726F4500822A9
:104A4000E86A09220EAE29EF25F01250085E1350D5
:104A5000095A13AE000C0D50085E0E50095A000C96
:104A600008C012F008500D02F4CF07F0F3CF06F0A3
:104A700009500E02F4CF09F0F3CF08F00D02F35005
:104A80000726F4500822E86A092212500E02F35059
:0C4A90000726F4500822E86A0922000CF6
:044A9C00D9CFE6FF89
:104AA000DACFE6FFE1CFD9FFE2CFDAFFE652E652F6
:104AB000E652E652D950F90F146EFF0EDA20156E49
:104AC000020E14C0DBFF030E15C0DBFF020EDBCFAE
:104AD000E6FF030EDBCFE6FFF90EDBCFE6FFFA0EB3
:104AE000DBCFE6FFFB0EDBCFE6FFD950FC0FE66E17
:104AF000FF0EDA20E66E90EC12F0146E070EE15C09
:104B000002E2E16AE552E16E1450F3CFDEFFF4CF2A
:104B1000DDFFFC0EDBCFE9FFFD0EDBCFEAFFEF6A26
:104B2000DECF14F0DDCF15F014C0F3FF15C0F4FF95
:104B3000040EE15C02E2E16AE552E16EE552E5CF86
:084B4000DAFFE7CFD9FF1200F4
:084B48000E0EF66E000EF76E72
:104B5000000EF86E0E010900F5502F6F0900F55098
:104B6000306F03E12F6701D03DD00900F5502A6F67
:104B70000900F5502B6F0900F5502C6F0900090052
:104B8000F550E96E0900F550EA6E090009000900C8
:104B9000F5502D6F0900F5502E6F09000900F6CF72
:104BA00031FEF7CF32FEF8CF33FE2ACEF6FF2BCE02
:104BB000F7FF2CCEF8FF0E012D5302E12E5307E034
:104BC0000900F550EE6E2D07F8E22E07F9D731CE29
:104BD000F6FF32CEF7FF33CEF8FF0E012F07000E9F
:064BE000305BBFD712009C
:0A4BE600D9CFE6FFDACFE6FFE1CFFA
:104BF000D9FFE2CFDAFFFB0EDBCF14F0FC0EDBCFE8
:104C000015F00001800E15141AE1FB0EDBCFE9FF51
:104C1000FC0EDBCFEAFFEECFF3FFEDCFF4FFEE2A81
:104C2000000EEF22F3CFE9FFF4CFEAFFFD0EDBCF5A
:104C3000EFFFEF50156AF36E15C0F4FF10D0FB0EB6
:104C4000DB50FE0806E1FD0EDBCFE6FFEBEC27F0C4
:104C500005D0FD0EDBCFE6FF03EC00F0E552E55298
:0A4C6000E5CFDAFFE7CFD9FF12001D
:064C6A00D9CFE6FFE1CF07
:104C7000D9FF060EE126DF6A010EDB6A020EDB6A4F
:104C8000030EDB6A040EDB6A050EDB6A8F0ED3149B
:104C90007009D36E9B8C0F015C6B5CCF5DFF3F0E88
:104CA000956E8C6ADC0E926E896A100E946E8B6A19
:104CB00030EC24F010EC28F0150EC26EC16A890E9B
:104CC000C06E9D9C200EF26E040EF16ED08ED66AE0
:104CD000820ED56ED59EF28E060EE15C02E2E16A8E
:0C4CE000E552E16EE552E7CFD9FF12006B
:044CEC00D9CFE6FF37
:104CF000DACFE6FFE1CFD9FFE2CFDAFFE652DF6A93
:104D0000FD0EDBCF15F015C014F0030E1514756EF3
:104D1000FF0EE76EFC0EDBCF14F0E7501416156A99
:104D20001450746EFB0EDB50736E7F9E7F9C7F84ED
:104D3000F250800B01E0010EDF6EF29E550E7E6E8A
:104D4000AA0E7E6E7F827FB2FED7DF50E8B0F28E71
:104D5000E8A0F29E7F94E552E552E5CFDAFFE7CF77
:044D6000D9FF120065
:0C4D640006500B02F3CF02F0F4CF03F076
:104D70000C02F3500326000EF420046E06500D02C0
:104D8000F3500426000EF420056E06500E02F35078
:104D9000052607500B02F3500326F4500422000EA0
:104DA000052207500C02F3500426F4500522075048
:104DB0000D02F350052608500B02F3500426F45060
:104DC000052208500C02F350052609500B02F3503F
:044DD00005261200A2
:0C4DD400253032642D253032640030356B
:104DE0002D31320048494E4400202020202000254B
:104DF000203564004C4345202564002020202020DD
:104E0000004C4F474F202020005245562020005292
:104E1000544320200044495350200046524520204E
:104E200000534C4F444E00534C4F55500046415395
:0F4E3000444E004641535550004C43452020004E
:104E4000FE0EE3CFE9FFFF0EE3CFEAFFF36AF46A59
:104E5000EE5203E0F34AF42AFBD71200FF0EE3CF31
:104E6000F8FFE552FF0EE3CFF7FFE552FF0EE3CF69
:104E7000F6FFE552E66AE66AE66A0900F55209E0DD
:104E8000FD0EE32A05E1FE0EE32A02E1FF0EE32A0E
:104E9000F4D7FD0EE3CF07F0FE0EE3CF08F0FF0ED0
:064EA000E3CF09F012004F
:0A4EA600D9CFE6FFDACFE6FFE1CF37
:104EB000D9FFE2CFDAFFFC0EDBCF14F0FD0EDBCF23
:104EC00015F015C014F0156A030E1414756EFF0E5C
:104ED000E76EFC0EDBCF14F0FD0EDBCF15F0E750D4
:104EE0001416156A1450746E7F9C7F9E7F8000009C
:104EF0000000735000D0E552E5CFDAFFE7CFD9FFCD
:024F000012009D
:0E4F0200056A046A036A026A200EE76ED89000
:104F100006360736083609360236033604360536B5
:104F20000B50025C0C5003580D5004580E5005589D
:104F300009E30B50025E0C50035A0D50045A0E50F8
:0A4F4000055A062AE72EE4D71200F6
:064F4A00056A046A100E66
:104F5000E76ED89008360936043605360D50045CE5
:104F60000E50055805E30D50045E0E50055A082AF0
:064F7000E72EF0D712004D
:0A4F7600F36AF46AFF0EE124E96E0D
:104F8000FF0EE220EA6EED6607D02F0EEF6404D02C
:0A4F90003A0EEF6001D0F32A120080
:064F9A00410EF36E00EE73
:104FA00000F00E0E01D81200EA6002D0EE6AFCD7C3
:0A4FB000F350E9601200EE6AFCD72E
:064FBA001DEE00F02DEEDB
:104FC00000F0F86A019CA4EC25F013EC28F0EFEC5B
:064FD00001F0FBD7120006
:0A4FD600FF0EE350ACBA04D0AF6A3E
:104FE000AB8EAC8A949CACA2FED7AD6EF36EF46A25
:024FF0001200AD
:0E4FF200056A080EE76ED890093605360E5097
:0E500000055C02E3056E092AE72EF7D71200C1
:02500E0030313F
:0F50100032333435363738396162636465660090
:06502000C2909D9C1200ED
:02502600120076
:0850280001030000000000007C
:10503000000000000000000000000100000000006F
:04504000000000006C
:020000040030CA
:010000001DE2
:0100080000F7
:0100090000F6
:01000B00C034
:00000001FF
